:100000000C9484000C94A5000C94A5000C94A500FD
:100010000C94A5000C94A5000C94A5000C94A500CC
:100020000C94A5000C94A5000C94A5000C94A500BC
:100030000C94A5000C94A5000C94A5000C94A500AC
:100040000C94A5000C94A5000C94A5000C94A5009C
:100050000C94A5000C94A5000C94A5000C94A5008C
:100060000C94A5000C948F010C9465010C94A500D0
:100070000C94A5000C94A5000C94A5000C94A5006C
:100080000C94A5000C94A5000C94A5000C94A5005C
:100090000C94A5000C94A5000C94A5000C94A5004C
:1000A0000C94A5000C94A5000C94B9010C94E301E8
:1000B0000C940D020C94A5000C9437020C94610270
:1000C0000C948F020C94BD020C94EB020C94A500CE
:1000D0000C94A5000C94A5000C94A5000C94A5000C
:1000E0000C94A5000C941F010C94C5030C942503DB
:1000F0000C9471030C9414010C9442010C94BF03F2
:100100000C942B010C94360111241FBECFEFD1E2C9
:10011000DEBFCDBF00E00CBF13E0A0E0B2E0E8EE30
:10012000FEE000E00BBF02C007900D92A632B107BF
:10013000D9F713E0A6E2B3E001C01D92A835B107DC
:10014000E1F70E942D050C9472070C940000FC014D
:100150008381811115C0A481B5810D90BC91A02D22
:100160009C918281892B8C93A481B58112960D90EC
:10017000BC91A02D9C918281892B8C9381E08383FB
:100180000895FC018381882361F0A481B5811296D2
:100190000D90BC91A02D9C918281809589238C9398
:1001A00013820895FC01718360830895DC01ED9151
:1001B000FC91309709F019940895DC011696ED91A1
:1001C000FC911797808191810895DC011696ED913D
:1001D000FC911797718360830895DC01ED91FC9188
:1001E00011970280F381E02D908112968C91892BDA
:1001F00080830895DC01ED91FC9111970680F781D1
:10020000E02D12968C9190E0918380830895DC011B
:10021000ED91FC9111970280F381E02D908112966F
:100220008C91892B80830895A2E4B2E0ED91FC913A
:100230001197908116968C91892B80830895A2E462
:10024000B2E0ED91FC911197908116968C9180957A
:10025000892380830895AAE5B2E0ED91FC9111977E
:10026000908116968C91892B80830895AAE5B2E03F
:10027000ED91FC911197908116968C918095892330
:1002800080830895109229031092280381E08093BF
:1002900027038FEC92E00E94D7058823A9F063EE34
:1002A00072E08AE393E00E946B07EAE3F3E00190D7
:1002B0000020E9F73197AF014A5353406AE373E0F6
:1002C0008FEC92E00C94950508951F920F920FB653
:1002D0000F9211240BB60F922F933F934F935F937E
:1002E0006F937F938F939F93AF93BF93EF93FF93FE
:1002F0008FEC92E00E94A305FF91EF91BF91AF9127
:100300009F918F917F916F915F914F913F912F912D
:100310000F900BBE0F900FBE0F901F9018951F925D
:100320000F920FB60F9211240BB60F922F933F939B
:100330004F935F936F937F938F939F93AF93BF93ED
:10034000EF93FF938FEC92E00E94BF05FF91EF9136
:10035000BF91AF919F918F917F916F915F914F91DD
:100360003F912F910F900BBE0F900FBE0F901F90DB
:1003700018951F920F920FB60F9211240BB60F9281
:100380002F933F934F935F936F937F938F939F939D
:10039000AF93BF93EF93FF938DEA92E00E94A9067B
:1003A000FF91EF91BF91AF919F918F917F916F914D
:1003B0005F914F913F912F910F900BBE0F900FBE09
:1003C0000F901F9018951F920F920FB60F92112445
:1003D0000BB60F922F933F934F935F936F937F933F
:1003E0008F939F93AF93BF93EF93FF9387EB92E02D
:1003F0000E94A906FF91EF91BF91AF919F918F91BC
:100400007F916F915F914F913F912F910F900BBE14
:100410000F900FBE0F901F9018951F920F920FB65E
:100420000F9211240BB60F922F933F934F935F932C
:100430006F937F938F939F93AF93BF93EF93FF93AC
:1004400081EC92E00E94A906FF91EF91BF91AF91DC
:100450009F918F917F916F915F914F913F912F91DC
:100460000F900BBE0F900FBE0F901F9018951F920C
:100470000F920FB60F9211240BB60F922F933F934A
:100480004F935F936F937F938F939F93AF93BF939C
:10049000EF93FF9383E992E00E94D600FF91EF91E2
:1004A000BF91AF919F918F917F916F915F914F918C
:1004B0003F912F910F900BBE0F900FBE0F901F908A
:1004C00018951F920F920FB60F9211240BB60F9230
:1004D0002F933F934F935F936F937F938F939F934C
:1004E000AF93BF93EF93FF938BE892E00E94D60007
:1004F0008BE892E00E94C100FF91EF91BF91AF9114
:100500009F918F917F916F915F914F913F912F912B
:100510000F900BBE0F900FBE0F901F9018951F925B
:100520000F920FB60F9211240BB60F922F933F9399
:100530004F935F936F937F938F939F93AF93BF93EB
:10054000EF93FF9383E892E00E94D60083E892E065
:100550000E94C100FF91EF91BF91AF919F918F9148
:100560007F916F915F914F913F912F910F900BBEB3
:100570000F900FBE0F901F9018951F920F920FB6FD
:100580000F9211240BB60F922F933F934F935F93CB
:100590006F937F938F939F93AF93BF93EF93FF934B
:1005A0008BE792E00E94D6008BE792E00E94C100A8
:1005B000FF91EF91BF91AF919F918F917F916F913B
:1005C0005F914F913F912F910F900BBE0F900FBEF7
:1005D0000F901F9018951F920F920FB60F92112433
:1005E0000BB60F922F933F934F935F936F937F932D
:1005F0008F939F93AF93BF93EF93FF9383E792E023
:100600000E94D60083E792E00E94C100FF91EF9123
:10061000BF91AF919F918F917F916F915F914F911A
:100620003F912F910F900BBE0F900FBE0F901F9018
:100630001895A2E5B2E0ED91FC9111979081169684
:100640008C918095892380830895109229031092BC
:100650002803109227030E941F010E9436010E9466
:1006600019038FEC92E00E94D7058823A9F069EE68
:1006700072E08AE393E00E946B07EAE3F3E0019003
:100680000020E9F73197AF014A5353406AE373E022
:100690008FEC92E00C9495050895EF92FF920F93E2
:1006A0001F93E0902803F090290300912A031091F2
:1006B0002B032FE932E04DEA52E06CE273E080E078
:1006C00092E00E94FC0680912803909129030696EF
:1006D00090932903809328031F910F91FF90EF902F
:1006E000089585E692E00E94FA0083E992E00E9474
:1006F000DD0090932B0380932A0380912A0390912D
:100700002B0360912A0370912B0376956795880FD0
:10071000991F680F791F8BE792E00E94E5008BE735
:1007200092E00E94A70083E792E00E94A7008091D8
:100730002703882319F10E944D038091280390918B
:1007400029038C359140D1F460912A0370912B03D9
:100750008BE892E00E94E5008BE892E00E94A700FF
:1007600060912A0370912B03660F771F83E892E054
:100770000E94E50083E892E00C94A70008958FE9B9
:1007800092E00E94FA000C944D0385E692E00E94EC
:10079000FA008FE992E00E94FA000E944D03109245
:1007A0002903109228030895CF93DF93EC010E9450
:1007B0003B0560E170E0CE010E94440568E0CE0197
:1007C0000E94500560E0CE010E94740561E0CE01F8
:1007D0000E948805CE010E94D7058823D9F36FEEC9
:1007E00072E08AE393E00E946B07EAE3F3E0019092
:1007F0000020E9F73197AF014A5353406AE373E0B1
:10080000CE01DF91CF910C94950582EA92E00E948F
:10081000ED0088E692E00E94ED0082E692E00E9400
:10082000070161E773E083E992E00E94D2006FEB79
:1008300073E08BE892E00E94D20065EC73E083E8FD
:1008400092E00E94D20062E471E08BE792E00E94A5
:10085000D20065E273E083E792E00E94D20083E970
:1008600092E00E94A70083E792E00E94A7008FEC2D
:1008700092E00E94D7058823D1F36CEF72E08AE3FF
:1008800093E00E946B07EAE3F3E001900020E9F7B0
:100890003197AF014A5353406AE373E08FEC92E023
:1008A0000C949505E0915E02F0915F029081809139
:1008B0006002892B8083E0915A02F0915B02908163
:1008C00080916002809589238083E0915602F091A7
:1008D0005702908180915802892B8083E0915202C7
:1008E000F0915302908180915802809589238083F2
:1008F000E0914E02F0914F02908180915002892B3D
:100900008083E0914A02F0914B02908180915002E5
:10091000809589238083E0914602F091470290817F
:1009200080914802892B8083E0914202F09143023A
:10093000908180914802809589238083E0913E02D6
:10094000F0913F02908180914002809589238083BD
:10095000E0913A02F0913B02908180914002892B14
:1009600080838FEC92E00E94D7058823D1F36AE060
:1009700073E08AE393E00E946B07EAE3F3E00190FF
:100980000020E9F73197AF014A5353406AE373E01F
:100990008FEC92E00C9495056CE272E08CE293E0AF
:1009A0000E9427066EE172E08CE293E00E94270627
:1009B00060E172E08CE293E00E94270662E072E060
:1009C0008CE293E00E9427068FEC92E00E94D7050C
:1009D0008823D1F367E173E08AE393E00E946B0719
:1009E000EAE3F3E001900020E9F73197AF014A53C1
:1009F00053406AE373E08FEC92E00C94950580918C
:100A000026038A3348F4E0914A02F0914B02908128
:100A100080915002892B80838FE79CE00197F1F74A
:100A200000C00000E0914A02F0914B029081809159
:100A300050028095892380838FE79CE00197F1F72E
:100A400000C00000809126038B3320F48F5F8093D9
:100A50002603089510922603089578948FEC92E06F
:100A60000E94D4030E9405040E9452040E94CC04F8
:100A70000E94FF04FDCFDC011496ED91FC911597C7
:100A80008081886080830895DC011896ED91FC9147
:100A9000199770831A96ED91FC911B9760830895C6
:100AA000FC016623D1F0653059F4A481B5818C91A5
:100AB0008D7F8C930680F781E02D80818D7F12C021
:100AC000663059F0673049F0683039F0693059F4D0
:100AD000A481B5818C9182608C930680F781E02D92
:100AE0008081826080830895FC01662351F062302A
:100AF00011F0633061F40680F781E02D8081806120
:100B000005C00680F781E02D80818F7E8083089567
:100B1000DC011696ED91FC9117978081623011F4FB
:100B2000886001C0877F80830895FC01A481B5811E
:100B30008C9185FDFDCF17867587648746878C91DC
:100B400080628C930895CF93DF93FC01878596850F
:100B5000891760F4C081D181A485B585A80FB11D26
:100B60008C91888387858F5F878706C00480F58195
:100B7000E02D80818F7D8083DF91CF910895FC01EE
:100B800083899289891760F4A081B1819C91A089A1
:100B9000B189A80FB11D9C9383898F5F838B0895C2
:100BA0000480F581E02D80818F7780830895FC019A
:100BB00081E027859685291380E00895FB01DC01FB
:100BC0001A962D913C911B973387228795878487AE
:100BD0001B967C936E931A97A285B385109721F08C
:100BE0001D967C936E931C970895FB01DC011C9667
:100BF0002D913C911D9735872487938782871D9679
:100C00007C936E931C97A485B585109721F01B9655
:100C10007C936E931A970895CF93DF93DC011A9615
:100C2000ED91FC911B97309731F01C962D913C91E2
:100C30001D9735872487EC01AC85BD85109721F081
:100C40001B96FC93EE931A97DF91CF910895DB01E9
:100C500012964D915C911397FC01228133814217CA
:100C6000530700F5DC011C96ED91FC911D97309720
:100C700011F40C94F505DB0112964D915C911397DC
:100C80002281338142175307A0F7CF01EBCFDB015D
:100C900012964D915C911397228133812417350769
:100CA00040F4CF01DC011A96ED91FC911B9730972F
:100CB00071F70C94DE05CF93DF93EC01EC85FD8595
:100CC000309701F1228133818A819B8182179307BA
:100CD000C8F4CE010E940C06EC85FD85309731F4F6
:100CE000BC01CE01DF91CF910C94F5054281538177
:100CF000DC0112962D913C9113972417350780F74C
:100D0000EF01EACFEA85FB85309701F1228133813B
:100D10008A819B8128173907C8F4CE010E940C06EE
:100D2000EA85FB85309731F4BC01CE01DF91CF918C
:100D30000C94DE0542815381DC0112962D913C9189
:100D400013974217530780F7EF01EACFDF91CF9156
:100D50000895CF93DF93EC012296CE010E94D60036
:100D600060E070E0CE010E94D200CE01DF91CF9111
:100D70000C94C1000F931F93CF93DF938A01FC0162
:100D8000208131812115310581F4EC012296CE01BB
:100D90000E94D200B801CE010E94E500CE01DF9191
:100DA000CF911F910F910C94A700FC0142815381B8
:100DB000452B59F3C901E3CFFC01228133818081A6
:100DC000918128173907B9F08081918193838283BB
:100DD0008281938166E070E00E9457079187808747
:100DE0008281938120853185821B930B9783868333
:100DF000CF010C945B0608958F929F92AF92BF92A1
:100E0000CF92DF92EF92FF920F931F93CF93DF93D6
:100E1000EC016B015A01C9010E94FA0086E0882E9C
:100E2000912CA881B981109799F116968D919C917A
:100E300017978E159F0571F51496ED91FC911597F6
:100E40003097D9F018968D919C911997892B11F4B0
:100E5000199513C018962D913C911997029FC001C6
:100E6000039F900D129F900D1124B4010E9457070B
:100E7000AB01BF01C5010E94BA06888199810E9419
:100E8000DC06E881F9818285938599838883C9CFBF
:100E9000D982C882DF91CF911F910F91FF90EF907F
:100EA000DF90CF90BF90AF909F908F900895AA1B36
:100EB000BB1B51E107C0AA1FBB1FA617B70710F045
:100EC000A61BB70B881F991F5A95A9F78095909577
:100ED000BC01CD010895FB01DC0101900D920020C1
:080EE000E1F70895F894FFCF3B
:100EE8002C03B600B6001F01B40002000000000089
:100EF8005C005C0014015A00020000000000B5000C
:100F0800B5003601B4000100000000005B005B0082
:100F18002B015A000100000000000B0109010A0121
:100F2800020025002300240080002500230024005F
:100F38004000250023002400200025002300240071
:100F480010006B02406B02006B020220012101229B
:100F5800012401000001009B020000000008009B22
:100F6800022C01000004009B022A01000002009BE1
:100F7800022801000020009B0226013A007300A508
:100F88000200A50202A000A100A200A400B702006E
:100F9800000200CB02A800C10200000400CB02AA94
:100FA80000000000000800CB02AC0039007200C647
:100FB80000C000C100C200C500C40000000000005D
:100FC8000000004D61726B0A0053746F700A00557F
:100FD80061727420696E697465640A0054696D658C
:100FE8007220696E697465640A00506F72742069B2
:100FF8006E697465640A00416374696F6E20696E76
:06100800697465640A0032
:00000001FF
