:100000000C9472000C948B000C948B000C948B005D
:100010000C948B000C948B000C948B000C948B0034
:100020000C948B000C948B000C948B000C948B0024
:100030000C948B000C948B000C948B000C948B0014
:100040000C948B000C948B000C948B000C948B0004
:100050000C948B000C948B000C948B000C948B00F4
:100060000C948B000C948B000C948B000C948B00E4
:100070000C948B000C948B000C948B000C948B00D4
:100080000C948B000C948B000C948B000C948B00C4
:100090000C948B000C948B000C948B000C948B00B4
:1000A0000C948B000C948B000C948B000C948B00A4
:1000B0000C948B000C948B000C948B000C948B0094
:1000C0000C948B000C948B000C948B000C948B0084
:1000D0000C948B000C948B000C948B000C948B0074
:1000E0000C948B0011241FBECFEFD1E2DEBFCDBF39
:1000F00000E00CBF12E0A0E0B2E0EAEFF1E000E0C7
:100100000BBF02C007900D92A831B107D9F70E942A
:100110008D000C94FB000C94000087E6A82EB12CF7
:10012000C12C96E0E92E00E020E040E068E188E0A4
:1001300092E00E94CA0088E092E00E94E600E0910E
:100140000402F0910502908180910602892B808340
:10015000E0910002F0910102908180910602809569
:10016000892380832FEF81EE94E0215080409040DE
:10017000E1F700C0000080E092E00E94C000F2CFF2
:10018000DC01ED91FC911197908116968C91892755
:1001900080830895AF92BF92CF92EF920F93FC01AC
:1001A0008385682B63878685C82AEC280E29202B37
:1001B000422B468784819581A82AB92AB582A482D8
:1001C0000F91EF90CF90BF90AF900895FC01A28166
:1001D000B3818481958111969C938E93A681B7817A
:1001E00080858C93A185B28583858C93A485B58504
:0A01F00086858C930895F894FFCFE4
:1001FA002500230024008000C600C4000000C000BF
:08020A0000C10000C200000069
:00000001FF
