:100000000C9472000C948B000C948B000C948B005D
:100010000C948B000C948B000C948B000C948B0034
:100020000C948B000C948B000C948B000C948B0024
:100030000C948B000C948B000C948B000C948B0014
:100040000C948B000C948B000C948B000C948B0004
:100050000C948B000C948B000C948B000C948B00F4
:100060000C948B000C948B000C948B000C948B00E4
:100070000C948B000C948B000C948B000C948B00D4
:100080000C948B000C948B000C948B000C948B00C4
:100090000C948B000C948B000C948B000C948B00B4
:1000A0000C948B000C948B000C948B000C948B00A4
:1000B0000C948B000C948B000C948B000C948B0094
:1000C0000C948B000C948B000C948B000C948B0084
:1000D0000C948B000C948B000C948B000C948B0074
:1000E0000C948B0011241FBECFEFD1E2DEBFCDBF39
:1000F00000E00CBF12E0A0E0B2E0E6E7F1E000E0D3
:100100000BBF02C007900D92A830B107D9F70E942B
:100110008D000C94B9000C9400007894E0910402D6
:10012000F0910502908180910602892B8083E091F5
:100130000002F0910102908180910602809589234E
:1001400080832FEF81EE94E0215080409040E1F7D2
:1001500000C0000080E092E00E94AF00F2CFDC011E
:10016000ED91FC911197908116968C91892780834F
:060170000895F894FFCF92
:08017600250023002400800095
:00000001FF
