:100000000C9484000C94A5000C94A5000C94A500FD
:100010000C94A5000C94A5000C94A5000C94A500CC
:100020000C94A5000C94A5000C94A5000C94A500BC
:100030000C94A5000C94A5000C94A5000C94A500AC
:100040000C94A5000C94A5000C94A5000C94A5009C
:100050000C94A5000C94A5000C94A5000C94A5008C
:100060000C94A5000C94A5000C94A5000C94A5007C
:100070000C94A5000C94A5000C94A5000C94A5006C
:100080000C94A5000C94A5000C94A5000C94A5005C
:100090000C94A5000C94A5000C94A5000C94A5004C
:1000A0000C94A5000C94A5000C9453020C948C02A3
:1000B0000C94C5020C94A5000C94FE020C942B0326
:1000C0000C9460030C9495030C94CA030C94A50043
:1000D0000C94A5000C94A5000C94A5000C94A5000C
:1000E0000C94A5000C94D5010C9491010C94E7009C
:1000F0000C94C9000C94D5000C94BC010C94A7007E
:100100000C94B2000C94BE0011241FBECFEFD1E2BC
:10011000DEBFCDBF00E00CBF19E0A0E0B2E0E2E935
:10012000FCE000E00BBF02C007900D92A030B107C9
:10013000D9F719E0A0E0B9E001C01D92A830B107DD
:10014000E1F70E945F040C9447060C940000AFEEA8
:10015000B8E0ED91FC911197908116968C91892BC6
:1001600080830895AFEEB8E0ED91FC9111979081F6
:1001700016968C918095892380830895A7EFB8E027
:10018000ED91FC911197908116968C91892B80832B
:100190000895A7EFB8E0ED91FC9111979081169624
:1001A0008C91809589238083089510920209109282
:1001B000010981E080930009AFEDB8E0ED91FC9179
:1001C0001197908116968C91892B808308951092B7
:1001D00002091092010910920009AFEDB8E0ED910B
:1001E000FC911197908116968C91892B80830895AC
:1001F000FC01A481B5810D90BC91A02D9C918281C0
:10020000892B8C93A481B58112960D90BC91A02D61
:100210009C918281892B8C9381E083830895FC01DA
:10022000A481B58112960D90BC91A02D9C918281E4
:10023000809589238C9313820895E0910609F091AB
:1002400007092481358180910109909102092817BD
:10025000390709F0089586819781009709F458C0FD
:100260004091030950910409849F9001859F300DAE
:10027000949F300D1124ABEABAEA0E94CF059695FF
:10028000879596958795A091D108B091D20811963F
:100290009C938E93808591859093CC088093CB0816
:1002A0008091CE08882359F14081518182819381C8
:1002B00084179507D9F09A01ABEABAEA0E94CF05F4
:1002C00096958795969587959C01220F331F820FEF
:1002D000931F880F991F9A01281B390BC901378377
:1002E00026839A01281B390B358324835383428349
:1002F00082859385909307098093060908958BEC76
:1003000098E00E94F800E0910609F0910709CCCF2F
:100310000084F185E02D1995E0910609F091070917
:10032000C3CFE3E7F8E0A081B18116960D90BC91B0
:10033000A02D828190E011969C938E93EDEAF8E0D7
:10034000A081B18116960D90BC91A02D828190E084
:1003500011969C938E930E941D0110920209109297
:100360000109AFEDB8E0ED91FC91119790811696DF
:100370008C91892B80830895EDEAF8E0A081B1810A
:1003800016960D90BC91A02D828190E011969C93C1
:100390008E930E941D018091010990910209069699
:1003A00090930209809301090895E0917308F091F8
:1003B00074080680F781E02D8091750890E09183A4
:1003C0008083E091AD08F091AE080680F781E02DC2
:1003D0008091AF0890E091838083E091A708F0912D
:1003E000A8088081918190930409809303099C015E
:1003F00036952795880F991F820F931FE0918F08DC
:10040000F09190089183808380918C08882309F46F
:1004100040C08091000981110BC0E091DF08F0918C
:10042000E00890818091E508809589238083089574
:100430000E941D01809101099091020906969093F6
:100440000209809301098C35914039F780910309A5
:1004500090910409E0919F08F091A0089183808316
:1004600080919C088823D1F0809103099091040920
:10047000880F991FE0919708F091980891838083E5
:10048000809194088111C9CF81E998E00E94F80019
:10049000C4CF89E898E00E94F800BBCF89E998E0D2
:1004A0000E94F800E1CF1F920F920FB60F92112415
:1004B0000BB60F922F933F934F935F936F937F935E
:1004C0008F939F93AF93BF93EF93FF93E091CB08EC
:1004D000F091CC08309709F019951092CC08109241
:1004E000CB088091CE08882321F08BEC98E00E9405
:1004F0000F01FF91EF91BF91AF919F918F917F91EC
:100500006F915F914F913F912F910F900BBE0F9084
:100510000FBE0F901F9018951F920F920FB60F925B
:1005200011240BB60F922F933F934F935F936F93CA
:100530007F938F939F93AF93BF93EF93FF93E0913C
:10054000C308F091C408309709F019951092C408B7
:100550001092C3088091C608882321F083EC98E0AC
:100560000E940F01FF91EF91BF91AF919F918F91E9
:100570007F916F915F914F913F912F910F900BBEA3
:100580000F900FBE0F901F9018951F920F920FB6ED
:100590000F9211240BB60F922F933F934F935F93BB
:1005A0006F937F938F939F93AF93BF93EF93FF933B
:1005B000E091BB08F091BC08309709F019951092B2
:1005C000BC081092BB088091BE08882321F08BEBF9
:1005D00098E00E940F01FF91EF91BF91AF919F9121
:1005E0008F917F916F915F914F913F912F910F90DC
:1005F0000BBE0F900FBE0F901F9018951F920F9279
:100600000FB60F9211240BB60F922F933F934F9377
:100610005F936F937F938F939F93AF93BF93EF936A
:10062000FF93E091A108F091A208309709F0199585
:10063000FF91EF91BF91AF919F918F917F916F91BA
:100640005F914F913F912F910F900BBE0F900FBE76
:100650000F901F9018951F920F920FB60F921124B2
:100660000BB60F922F933F934F935F936F937F93AC
:100670008F939F93AF93BF93EF93FF93E09199086C
:10068000F0919A08309709F0199580919C08882379
:1006900021F089E998E00E940F01FF91EF91BF914D
:1006A000AF919F918F917F916F915F914F913F910A
:1006B0002F910F900BBE0F900FBE0F901F901895AB
:1006C0001F920F920FB60F9211240BB60F922F9319
:1006D0003F934F935F936F937F938F939F93AF93CA
:1006E000BF93EF93FF93E0919108F09192083097B8
:1006F00009F0199580919408882321F081E998E008
:100700000E940F01FF91EF91BF91AF919F918F9147
:100710007F916F915F914F913F912F910F900BBE01
:100720000F900FBE0F901F9018951F920F920FB64B
:100730000F9211240BB60F922F933F934F935F9319
:100740006F937F938F939F93AF93BF93EF93FF9399
:10075000E0918908F0918A08309709F01995809105
:100760008C08882321F089E898E00E940F01FF910E
:10077000EF91BF91AF919F918F917F916F915F9119
:100780004F913F912F910F900BBE0F900FBE0F9086
:100790001F9018951F920F920FB60F9211240BB64F
:1007A0000F922F933F934F935F936F937F938F930A
:1007B0009F93AF93BF93EF93FF93E0918108F091E4
:1007C0008208309709F01995FF91EF91BF91AF9191
:1007D0009F918F917F916F915F914F913F912F9159
:1007E0000F900BBE0F900FBE0F901F901895EF92B9
:1007F000FF920F931F93CF93DF93E72FFF27772766
:10080000252F30E0D901119658E25A9F90015B9F45
:10081000300D1124EC01C20FD31F7F015FEFE51AE9
:10082000F50A8E010E0F1F1FD8015C912852310965
:10083000820F931FE80FF91FE0818E0D9F1DDC01D1
:100840002C91332727FD30950E2F112707FD10958A
:10085000201B310B269FF001279FF00D369FF00DD6
:100860001124EF2FFF27E00FF11FD701AC0FBD1FA1
:100870008C91992787FD9095252F332727FD30955B
:10088000821B930B869FD001879FB00D969FB00D62
:1008900011248B2F9927280F391F2E1B3F0B429FA6
:1008A000C001439F900D1124892F99278E0F9F1F00
:1008B000DF91CF911F910F91FF90EF900895789461
:1008C000E091FB08F091FC0890818091FD08892B54
:1008D0008083E091F708F091F80880819091FD08FD
:1008E000909589238083E091F308F091F40890813A
:1008F0008091F508892B8083E091EF08F091F00852
:1009000080819091F508909589238083E091EB0890
:10091000F091EC0890818091ED08892B8083E09123
:10092000E708F091E80880819091ED08909589237F
:100930008083E091E308F091E40890818091E508DC
:10094000892B8083E091DF08F091E008808190910D
:10095000E50890958923808384E698E090930709C1
:100960008093060928E538E030936F0820936E08DD
:100970002CE438E0309363082093620820E438E0E8
:10098000309357082093560890934B0880934A0859
:10099000E091DB08F091DC0880819091DD08909572
:1009A00089238083E091D708F091D80890818091C5
:1009B000DD08892B8083E0917608F091770802802A
:1009C000F381E02D908180917808892B8083E091DC
:1009D000B008F091B1080280F381E02D9081809100
:1009E000B208892B8083E0917008F0917108028031
:1009F000F381E02D908180917208892B808385EDB1
:100A000091E09093A2088093A1088CEB91E09093E1
:100A10009A088093990881E991E0909392088093D5
:100A2000910885ED90E090938A088093890887EE7D
:100A300090E090938208809381088091A408882395
:100A400009F4A8C080918408882309F49EC040E876
:100A5000C42E44E8D42E4EE1E42EF12CC8E6D1E0B9
:100A60000AED11E0809105098A3348F4E091E70826
:100A7000F091E80890818091ED08892B80838FE8C0
:100A800091E00197F1F700C00000E091E708F091D4
:100A9000E80890818091ED088095892380838FE814
:100AA00091E00197F1F700C00000809105098B33B8
:100AB00040F48F5F80930509809105098A33F8F629
:100AC000D5CF209103093091040940E050E0C701DF
:100AD000B6010E94F205CA01B90140E050E080E091
:100AE00092E00E94F7039C01CE01821B930BBE0192
:100AF0000E94DE05FC019093650880936408C8019C
:100B0000821B930BBE010E94DE05AC019093590835
:100B100080935808EC54FF4F9F01A3E8BDE20E9468
:100B2000CF050024880F991F001C880F991F001CF7
:100B3000892F902D8C9F90018D9F300D9C9F300DA3
:100B40001124E21BF30BF0934D08E0934C084C5436
:100B50005F4F9A010E94CF050024880F991F001C47
:100B6000880F991F001C892F902D8C9F90018D9FBD
:100B7000300D9C9F300D1124421B530B50934108A4
:100B800040934008109205096DCF81E898E00E94DB
:100B9000F8005DCF81EA98E00E94F80053CFA29F51
:100BA000B001B39FC001A39F700D811D1124911D41
:100BB000B29F700D811D1124911D089597FB072E82
:100BC00016F4009407D077FD09D00E94110607FCA7
:100BD00005D03EF4909581959F4F0895709561954D
:100BE0007F4F0895052E97FB1EF400940E9409067E
:100BF00057FD07D00E94250607FC03D04EF40C9445
:100C0000090650954095309521953F4F4F4F5F4FC6
:100C1000089590958095709561957F4F8F4F9F4F68
:100C20000895AA1BBB1B51E107C0AA1FBB1FA61733
:100C3000B70710F0A61BB70B881F991F5A95A9F785
:100C400080959095BC01CD010895A1E21A2EAA1BB2
:100C5000BB1BFD010DC0AA1FBB1FEE1FFF1FA2176C
:100C6000B307E407F50720F0A21BB30BE40BF50B69
:100C7000661F771F881F991F1A9469F760957095F2
:100C8000809590959B01AC01BD01CF010895F8942A
:020C9000FFCF94
:100C9200050A0F14191E23282D3237000000000008
:100CA2000000000000000000000000000000000042
:100CB200000000000000000000050A0F14191E23A6
:100CC200282D32000000000000000000000000009B
:100CD2000000000000000000000000000000000012
:100CE2000000000000000000000000000000000002
:100CF20000000000000000000000000000000000F2
:100D020000000000000000000000000000000000E1
:1012D2002601260126010000C9000000B400B40066
:1012E200B4000000BE000000720072007200000034
:1012F200B20000000000000000000000A700000093
:10130200790840790800790802200121012201248C
:101312000100000100A908000000000800A9082C33
:101322000100000400A9082A0100000200A90828FF
:101332000100002000A90826013A007300B308004A
:10134200B30802A000A100A200A40000000800D37C
:1013520008AC0000000400D308AA0000000200D379
:1013620008A800390072000B0109010A01020025D8
:1013720000230024008000250023002400400025D3
:101382000023002400200025002300240010000078
:00000001FF
