:100000000C9476000C9497000C9497000C94970035
:100010000C9497000C9497000C9497000C94970004
:100020000C9497000C9497000C9497000C949700F4
:100030000C9497000C9497000C9497000C949700E4
:100040000C9497000C9497000C9497000C949700D4
:100050000C9497000C9497000C9497000C949700C4
:100060000C9497000C9432010C9408010C949700A6
:100070000C9497000C9497000C9497000C949700A4
:100080000C9497000C9497000C9497000C94970094
:100090000C9497000C9497000C9497000C94970084
:1000A0000C9497000C9497000C945C010C948601BE
:1000B0000C94B0010C9497000C9497000C9497004A
:1000C0000C9497000C9497000C9497000C94970054
:1000D0000C9497000C9497000C9497000C94970044
:1000E0000C9497000C94FC000C94F10011241FBE9A
:1000F000CFEFD1E2DEBFCDBF00E00CBF12E0A0E049
:10010000B2E0E8EEFEE000E00BBF02C007900D9207
:10011000A23BB107D9F712E0A2EBB2E001C01D92F9
:10012000A23EB107E1F70E9420030C9472070C94E1
:100130000000FC018381811115C0A481B5810D905F
:10014000BC91A02D9C918281892B8C93A481B58137
:1001500012960D90BC91A02D9C918281892B8C933D
:1001600081E083830895FC018381882361F0A48169
:10017000B58112960D90BC91A02D9C9182818095A5
:1001800089238C9313820895FC0171836083089501
:10019000DC01ED91FC91309709F019940895DC0190
:1001A0001696ED91FC911797718360830895DC0199
:1001B000ED91FC9111970280F381E02D90811296D0
:1001C0008C91892B80830895DC01ED91FC9111972E
:1001D0000680F781E02D12968C9190E091838083C8
:1001E0000895ACE1B2E0ED91FC91119790811696E3
:1001F0008C91892B80830895ACE1B2E0ED91FC9164
:100200001197908116968C9180958923808308950B
:100210001F920F920FB60F9211240BB60F922F93CD
:100220003F934F935F936F937F938F939F93AF937E
:10023000BF93EF93FF9384E592E00E94B903FF918F
:10024000EF91BF91AF919F918F917F916F915F914E
:100250004F913F912F910F900BBE0F900FBE0F90BB
:100260001F9018951F920F920FB60F9211240BB684
:100270000F922F933F934F935F936F937F938F933F
:100280009F93AF93BF93EF93FF9384E592E00E9417
:10029000D503FF91EF91BF91AF919F918F917F9186
:1002A0006F915F914F913F912F910F900BBE0F90E7
:1002B0000FBE0F901F9018951F920F920FB60F92BE
:1002C00011240BB60F922F933F934F935F936F932D
:1002D0007F938F939F93AF93BF93EF93FF9382E3AB
:1002E00092E00E944C04FF91EF91BF91AF919F91DA
:1002F0008F917F916F915F914F913F912F910F90CF
:100300000BBE0F900FBE0F901F9018951F920F926B
:100310000FB60F9211240BB60F922F933F934F936A
:100320005F936F937F938F939F93AF93BF93EF935D
:10033000FF938CE392E00E944C04FF91EF91BF91F8
:10034000AF919F918F917F916F915F914F913F916D
:100350002F910F900BBE0F900FBE0F901F9018950E
:100360001F920F920FB60F9211240BB60F922F937C
:100370003F934F935F936F937F938F939F93AF932D
:10038000BF93EF93FF9386E492E00E944C04FF91A9
:10039000EF91BF91AF919F918F917F916F915F91FD
:1003A0004F913F912F910F900BBE0F900FBE0F906A
:1003B0001F901895CF93DF93EC010E94510360E1E9
:1003C00070E0CE010E945A0368E0CE010E946603ED
:1003D00060E0CE010E948A0361E0CE010E949E038C
:1003E000CE010E94ED038823D9F368E672E082EC27
:1003F00092E00E949404E2ECF2E001900020E9F720
:100400003197AF01425C524062EC72E0CE01DF9165
:10041000CF910C94AB0387E292E00E94D70084E571
:1004200092E00E94ED038823D1F365E772E082EC4D
:1004300092E00E949404E2ECF2E001900020E9F7DF
:100440003197AF01425C524062EC72E084E592E089
:100450000C94AB03E0912002F091210290818091F5
:100460002202892B8083E0911C02F0911D02908171
:100470008091220280958923808384E592E00E9406
:10048000ED038823D1F363E872E082EC92E00E94EE
:100490009404E2ECF2E001900020E9F73197AF011B
:1004A000425C524062EC72E084E592E00C94AB0353
:1004B0006EE072E084EB92E00E94220460E072E061
:1004C00084EB92E00E94220484E592E00E94ED0316
:1004D0008823D1F360E972E082EC92E00E949404F8
:1004E000E2ECF2E001900020E9F73197AF01425CC5
:1004F000524062EC72E084E592E00C94AB03FC01A4
:1005000020813181828193818217930769F033833F
:100510002283C90166E070E00E9480049187808791
:10052000281B390B3783268308958F929F92AF92B1
:10053000BF92CF92DF92EF92FF920F931F93CF93D0
:10054000DF93EC015B016A0184E292E00E94E40027
:1005500086E0882E912C9FE9E92E92E0F92E02EC9C
:1005600012E0A881B981109709F459C016968D91AF
:100570009C9117978C159D0509F055C01496ED9127
:10058000FC911597309709F43FC018962D913C9136
:1005900019972115310511F4199536C0A29EC00195
:1005A000A39E900DB29E900D1124B4010E94800470
:1005B000AB01BF0182E392E00E945D0484E592E01A
:1005C0000E94ED03882301F1E881F98181858F93F1
:1005D00080858F93FF92EF921F930F930E949B044D
:1005E000F80101900020E9F73197AF01425C5240D9
:1005F00062EC72E084E592E00E94AB030F900F90F2
:100600000F900F900F900F90888199810E947F0228
:10061000E881F9818285938599838883A2CF84EBD1
:1006200092E099838883DF91CF911F910F91FF9082
:10063000EF90DF90CF90BF90AF909F908F900895F4
:10064000789484E592E00E94DA010E940B020E94F5
:100650002A020E9458022FE788E391E0215080404F
:100660009040E1F700C000008091B2029091B30287
:10067000883621E0920728F01092B3021092B2025D
:1006800005C006969093B3028093B2024091B202E5
:100690005091B30260E27EE480EE92E00E94950207
:1006A000DACFDC011496ED91FC911597808188607A
:1006B00080830895DC011896ED91FC911997708361
:1006C0001A96ED91FC911B9760830895FC016623B7
:1006D000D1F0653059F4A481B5818C918D7F8C93D4
:1006E0000680F781E02D80818D7F12C0663059F041
:1006F000673049F0683039F0693059F4A481B58128
:100700008C9182608C930680F781E02D80818260DD
:1007100080830895FC01662351F0623011F063304C
:1007200061F40680F781E02D8081806105C006803C
:10073000F781E02D80818F7E80830895DC011696FD
:10074000ED91FC9117978081623011F4886001C0AF
:10075000877F80830895FC01A481B5818C9185FDFC
:10076000FDCF17867587648746878C9180628C934E
:100770000895CF93DF93FC0187859685891760F4F0
:10078000C081D181A485B585A80FB11D8C918883C6
:1007900087858F5F878706C00480F581E02D808183
:1007A0008F7D8083DF91CF910895FC0183899289A9
:1007B000891760F4A081B1819C91A089B189A80FAB
:1007C000B11D9C9383898F5F838B08950480F5818D
:1007D000E02D80818F7780830895FC0181E027855B
:1007E0009685291380E00895FB01DC011A962D916E
:1007F0003C911B9733872287958784871B967C9330
:100800006E931A97A285B385109721F01D967C935D
:100810006E931C970895FB01DC011C962D913C9171
:100820001D9735872487938782871D967C936E93C7
:100830001C97A485B585109721F01B967C936E9329
:100840001A970895DB0112962D913C911397FC01A4
:100850004281538124173507B0F4DC011C96ED91D9
:10086000FC911D97309711F40C940B044281538135
:1008700024173507C8F7CF01F0CF428153814217C3
:10088000530740F4CF01DC011A96ED91FC911B97C0
:10089000309799F70C94F403CF93DF93EC012296F1
:1008A000CE010E94C80060E070E0CE010E94C4004A
:1008B000CE01DF91CF910C94B3000F931F93CF9390
:1008C000DF938B01FC01208131812115310589F4F1
:1008D000EC012296BA01CE010E94CF00B801CE01F0
:1008E0000E94C400CE01DF91CF911F910F910C9413
:1008F0009900FC0162817381672B51F3C901E2CF3A
:10090000AA1BBB1B51E107C0AA1FBB1FA617B70735
:1009100010F0A61BB70B881F991F5A95A9F7809551
:100920009095BC01CD010895FB01DC0101900D9271
:100930000020E1F708950F931F93CF93DF93CDB776
:10094000DEB72E970FB6F894DEBF0FBECDBF0E896F
:100950001F8986E08C831A8309838FEF9FE79E832C
:100960008D83AE01465E5F4F688D798DCE01019615
:100970000E94CB042F813885F801E20FF31F10820B
:100980002E960FB6F894DEBF0FBECDBFDF91CF918C
:100990001F910F9108952F923F924F925F926F9205
:1009A0007F928F929F92AF92BF92CF92DF92EF92FF
:1009B000FF920F931F93CF93DF93CDB7DEB72C97A2
:1009C0000FB6F894DEBF0FBECDBF7C016B018A016C
:1009D000FC0117821682838181FFBDC1CE01019681
:1009E0004C01F7019381F60193FD859193FF81916D
:1009F0006F01882309F4ABC1853239F493FD8591E9
:100A000093FF81916F01853229F4B70190E00E9434
:100A1000DC06E7CF512C312C20E02032A0F48B32C1
:100A200069F030F4803259F0833269F420612CC0CF
:100A30008D3239F0803339F4216026C02260246081
:100A400023C0286021C027FD27C030ED380F3A3081
:100A500078F426FF06C0FAE05F9E300D1124532E75
:100A600013C08AE0389E300D1124332E20620CC052
:100A70008E3221F426FD6BC1206406C08C3611F441
:100A8000206802C0883641F4F60193FD859193FFFA
:100A900081916F018111C1CF982F9F7D9554933023
:100AA00028F40C5F1F4FFFE3F9830DC0833631F04C
:100AB000833771F0833509F05BC022C0F801808173
:100AC00089830E5F1F4F44244394512C540115C059
:100AD0003801F2E06F0E711CF801A080B18026FF92
:100AE00003C0652D70E002C06FEF7FEFC5012C875A
:100AF0000E94D1062C0183012C852F77222E17C04E
:100B00003801F2E06F0E711CF801A080B18026FF61
:100B100003C0652D70E002C06FEF7FEFC5012C8729
:100B20000E94C6062C012C852068222E830123FCFE
:100B30001BC0832D90E048165906B0F4B70180E23F
:100B400090E00E94DC063A94F4CFF50127FC8591F1
:100B500027FE81915F01B70190E00E94DC06311011
:100B60003A94F1E04F1A51084114510471F7E5C06D
:100B7000843611F0893639F5F80127FF07C0608106
:100B80007181828193810C5F1F4F08C060817181E8
:100B9000882777FD8095982F0E5F1F4F2F76722E36
:100BA00097FF09C090958095709561957F4F8F4F05
:100BB0009F4F2068722E2AE030E0A4010E941407A3
:100BC000A82EA81844C0853729F42F7EB22E2AE01B
:100BD00030E025C0F22FF97FBF2E8F36C1F018F418
:100BE000883579F0B4C0803719F0883721F0AFC06C
:100BF0002F2F2061B22EB4FE0DC08B2D8460B82E35
:100C000009C024FF0AC09F2F9660B92E06C028E0B5
:100C100030E005C020E130E002C020E132E0F80120
:100C2000B7FE07C060817181828193810C5F1F4F85
:100C300006C06081718180E090E00E5F1F4FA401CB
:100C40000E941407A82EA818FB2DFF777F2E76FE92
:100C50000BC0372D3E7FA51450F474FE0AC072FC01
:100C600008C0372D3E7E05C0BA2C372D03C0BA2CE4
:100C700001C0B52C34FF0DC0FE01EA0DF11D8081CD
:100C8000803311F4397E09C032FF06C0B394B394A7
:100C900004C0832F867809F0B39433FD13C030FF6E
:100CA00006C05A2CB31418F4530C5B18B32CB314AD
:100CB00068F4B70180E290E03C870E94DC06B394C0
:100CC0003C85F5CFB31410F43B1801C0312C34FF30
:100CD00012C0B70180E390E03C870E94DC063C85AF
:100CE00032FF17C031FD03C088E790E002C088E5FD
:100CF00090E0B7010CC0832F867859F031FF02C015
:100D00008BE201C080E237FD8DE2B70190E00E94E6
:100D1000DC06A51438F4B70180E390E00E94DC06FD
:100D20005A94F7CFAA94F401EA0DF11D8081B7011E
:100D300090E00E94DC06A110F5CF332009F451CEDB
:100D4000B70180E290E00E94DC063A94F6CFF7010A
:100D50008681978102C08FEF9FEF2C960FB6F89493
:100D6000DEBF0FBECDBFDF91CF911F910F91FF90DE
:100D7000EF90DF90CF90BF90AF909F908F907F903B
:100D80006F905F904F903F902F900895FC010590D9
:100D9000615070400110D8F7809590958E0F9F1F7D
:100DA0000895FC016150704001900110D8F78095C2
:100DB00090958E0F9F1F08950F931F93CF93DF93EE
:100DC000FB01238121FD03C08FEF9FEF28C022FF8D
:100DD00016C046815781248135814217530744F458
:100DE000A081B1819D012F5F3F4F318320838C9380
:100DF000268137812F5F3F4F3783268310C0EB0159
:100E0000092F182F0084F185E02D1995892BE1F623
:100E10008E819F8101969F838E83812F902FDF91FA
:100E2000CF911F910F910895FA01AA27283051F10F
:100E3000203181F1E8946F936E7F6E5F7F4F8F4F0B
:100E40009F4FAF4FB1E03ED0B4E03CD0670F781F6A
:100E5000891F9A1FA11D680F791F8A1F911DA11D4F
:100E60006A0F711D811D911DA11D20D009F4689488
:100E70003F912AE0269F11243019305D3193DEF630
:100E8000CF010895462F4770405D4193B3E00FD0E6
:100E9000C9F7F6CF462F4F70405D4A3318F0495DD1
:100EA00031FD4052419302D0A9F7EACFB4E0A695B4
:100EB0009795879577956795BA95C9F700976105D6
:100EC000710508959B01AC010A2E0694579547952C
:100ED00037952795BA95C9F7620F731F841F951F21
:080EE000A01D0895F894FFCF56
:100EE800B600B600FC00B4000200000000000100DB
:100EF8000100F100000001000000000025002300AF
:100F0800240080002A02002A0202A000A100A200F8
:100F1800A4003C02000002005002A80046020000A3
:100F280004005002AA000000000008005002AC00B3
:100F380039007200C600C000C100C200C500C4006C
:100F480000000000000000005561727420696E699D
:100F58007465640A0054696D657220696E69746508
:100F6800640A00506F727420696E697465640A00BF
:100F7800416374696F6E20696E697465640A005410
:100F8800696D657220616374696F6E3A2025750A10
:020F9800000057
:00000001FF
