:100000000C9472000C9493000C9493000C94930045
:100010000C9493000C9493000C9493000C94930014
:100020000C9493000C9493000C9493000C94930004
:100030000C9493000C9493000C9493000C949300F4
:100040000C9493000C9493000C9493000C949300E4
:100050000C9493000C9493000C9493000C949300D4
:100060000C9493000C94D5000C94AB000C9493006A
:100070000C9493000C9493000C9493000C949300B4
:100080000C9493000C9493000C9493000C949300A4
:100090000C9493000C9493000C9493000C94930094
:1000A0000C9493000C9493000C94FF000C94350175
:1000B0000C946B010C9493000C94A1010C94CD0151
:1000C0000C94FD010C942D020C945D020C94930091
:1000D0000C9493000C9493000C9493000C94930054
:1000E0000C94930011241FBECFEFD1E2DEBFCDBF31
:1000F00000E00CBF12E0A0E0B2E0E0E8F5E000E0D4
:100100000BBF02C007900D92A236B107D9F712E0DB
:10011000A2E6B2E001C01D92A236B107E1F70E944B
:1001200089020C94BE020C940000FC018381882398
:1001300061F0A481B58112960D90BC91A02D9C9187
:100140008281809589238C9313820895009711F002
:10015000FC01199408951F920F920FB60F9211246B
:100160000BB60F922F933F934F935F936F937F93B1
:100170008F939F93AF93BF93EF93FF938EE492E09F
:100180000E948A02FF91EF91BF91AF919F918F9151
:100190007F916F915F914F913F912F910F900BBE87
:1001A0000F900FBE0F901F9018951F920F920FB6D1
:1001B0000F9211240BB60F922F933F934F935F939F
:1001C0006F937F938F939F93AF93BF93EF93FF931F
:1001D0008EE492E00E94A602FF91EF91BF91AF9151
:1001E0009F918F917F916F915F914F913F912F914F
:1001F0000F900BBE0F900FBE0F901F9018951F927F
:100200000F920FB60F9211240BB60F922F933F93BC
:100210004F935F936F937F938F939F93AF93BF930E
:10022000CF93DF93EF93FF93CCE2D2E08A819B815F
:100230000E94A6001B821A828EE292E00E94950024
:10024000FF91EF91DF91CF91BF91AF919F918F91EE
:100250007F916F915F914F913F912F910F900BBEC6
:100260000F900FBE0F901F9018951F920F920FB610
:100270000F9211240BB60F922F933F934F935F93DE
:100280006F937F938F939F93AF93BF93CF93DF939E
:10029000EF93FF93C6E3D2E08A819B810E94A60080
:1002A0001B821A8288E392E00E949500FF91EF91F1
:1002B000DF91CF91BF91AF919F918F917F916F917E
:1002C0005F914F913F912F910F900BBE0F900FBEFA
:1002D0000F901F9018951F920F920FB60F92112436
:1002E0000BB60F922F933F934F935F936F937F9330
:1002F0008F939F93AF93BF93CF93DF93EF93FF932E
:10030000C0E4D2E08A819B810E94A6001B821A82EF
:1003100082E492E00E949500FF91EF91DF91CF91EE
:10032000BF91AF919F918F917F916F915F914F910D
:100330003F912F910F900BBE0F900FBE0F901F900B
:1003400018951F920F920FB60F9211240BB60F92B1
:100350002F933F934F935F936F937F938F939F93CD
:10036000AF93BF93EF93FF9380912002909121026E
:100370000E94A600FF91EF91BF91AF919F918F9145
:100380007F916F915F914F913F912F910F900BBE95
:100390000F900FBE0F901F9018951F920F920FB6DF
:1003A0000F9211240BB60F922F933F934F935F93AD
:1003B0006F937F938F939F93AF93BF93EF93FF932D
:1003C00080911802909119020E94A60088E192E0A3
:1003D0000E949500FF91EF91BF91AF919F918F91F6
:1003E0007F916F915F914F913F912F910F900BBE35
:1003F0000F900FBE0F901F9018951F920F920FB67F
:100400000F9211240BB60F922F933F934F935F934C
:100410006F937F938F939F93AF93BF93EF93FF93CC
:1004200080911002909111020E94A60080E192E05A
:100430000E949500FF91EF91BF91AF919F918F9195
:100440007F916F915F914F913F912F910F900BBED4
:100450000F900FBE0F901F9018951F920F920FB61E
:100460000F9211240BB60F922F933F934F935F93EC
:100470006F937F938F939F93AF93BF93EF93FF936C
:1004800080910802909109020E94A60088E092E003
:100490000E949500FF91EF91BF91AF919F918F9135
:1004A0007F916F915F914F913F912F910F900BBE74
:1004B0000F900FBE0F901F9018951F920F920FB6BE
:1004C0000F9211240BB60F922F933F934F935F938C
:1004D0006F937F938F939F93AF93BF93EF93FF930C
:1004E00080910002909101020E94A600FF91EF917D
:1004F000BF91AF919F918F917F916F915F914F913C
:100500003F912F910F900BBE0F900FBE0F901F9039
:100510001895FFCFCF93DF93FC01878596858917C8
:1005200060F4C081D181A485B585A80FB11D8C91DF
:10053000888387858F5F878706C00480F581E02DDB
:1005400080818F7D8083DF91CF910895FC01838925
:100550009289891760F4A081B1819C91A089B189A9
:10056000A80FB11D9C9383898F5F838B08950480AE
:10057000F581E02D80818F7780830895F894FFCFF7
:1005800000000100280200000000080028022C01E1
:100590000000040028022A010000020028022801AD
:1005A00000002000280226013A00730036020000F5
:1005B00002004A02A8004002000004004A02AA0009
:1005C0000000000008004A02AC0039007200C600BA
:1005D000C000C100C200C500C4000000000000004F
:0205E000000019
:00000001FF
