:100000000C9484000C94A5000C94A5000C94A500FD
:100010000C94A5000C94A5000C94A5000C94A500CC
:100020000C94A5000C94A5000C94A5000C94A500BC
:100030000C94A5000C94A5000C94A5000C94A500AC
:100040000C94A5000C94A5000C94A5000C94A5009C
:100050000C94A5000C94A5000C94A5000C94A5008C
:100060000C94A5000C94FD010C94D3010C94A500F4
:100070000C94A5000C94A5000C94A5000C94A5006C
:100080000C94A5000C94A5000C94A5000C94A5005C
:100090000C94A5000C94A5000C94A5000C94A5004C
:1000A0000C94A5000C94A5000C9427020C945D02FE
:1000B0000C9493020C94A5000C94C9020C94F502C4
:1000C0000C9425030C9455030C9485030C94A50003
:1000D0000C94A5000C94A5000C94A5000C94A5000C
:1000E0000C94A5000C9439010C94E0000C94C90008
:1000F0000C94D4000C94E9000C94B2000C944801C8
:100100000C94BD000C946A0111241FBECFEFD1E204
:10011000DEBFCDBF00E00CBF19E0A0E0B2E0ECEF25
:10012000F6E100E00BBF02C007900D92AA32B107C2
:10013000D9F719E0AAE2B9E001C01D92AC35B107C8
:10014000E1F70E9472040C947C0B0C940000ADEE5D
:10015000B8E0ED91FC911197908116968C91892BC6
:1001600080830895ADEFB8E0ED91FC9111979081F7
:1001700016968C91892B80830895ADEFB8E0ED91B0
:10018000FC911197908116968C918095892380839C
:100190000895A5E0B9E0ED91FC9111979081169634
:1001A0008C91892B80830895A5E0B9E0ED91FC91B5
:1001B0001197908116968C9180958923808308955C
:1001C00010922C0910922B0981E080932A090C943B
:1001D000A70010922C0910922B0910922A090C9456
:1001E000A70020912D0930912E0940912B095091A3
:1001F0002C0965EB78E088E599E00E948007809102
:100200002B0990912C09069690932C0980932B0929
:100210000895FC018381811115C0A481B5810D90E1
:10022000BC91A02D9C918281892B8C93A481B58156
:1002300012960D90BC91A02D9C918281892B8C935C
:1002400081E083830895FC018381882361F0A48188
:10025000B58112960D90BC91A02D9C9182818095C4
:1002600089238C9313820895009711F0FC0119944F
:100270000895E3EDF8E0A081B18116960D90BC9150
:10028000A02D828190E011969C938E930C94F100A6
:10029000EBE7F8E0A081B18116960D90BC91A02DFE
:1002A000828190E011969C938E93E3EDF8E0A0811B
:1002B000B18116960D90BC91A02D828190E011968F
:1002C0009C938E930E94F10010922C0910922B099E
:1002D0000C94A700E0917B08F0917C080680F781E0
:1002E000E02D80917D0890E091838083E091D30898
:1002F000F091D4080680F781E02D8091D50890E038
:1003000091838083E091AF08F091B0088081918162
:1003100090932E0980932D099C0136952795880F7F
:10032000991F820F931FE0919708F091980891838D
:10033000808381E998E00E94090180912A0988233D
:1003400039F10E94F10080912B0990912C098C3594
:100350009140F1F480912D0990912E09E091A70828
:10036000F091A8089183808381EA98E00E940901B6
:1003700080912D0990912E09880F991FE0919F0877
:10038000F091A0089183808389E998E00E94090197
:10039000E091ED08F091EE0890818091F30880954E
:1003A0008923808308951F920F920FB60F92112414
:1003B0000BB60F922F933F934F935F936F937F935F
:1003C0008F939F93AF93BF93EF93FF938DE099E04B
:1003D0000E948406FF91EF91BF91AF919F918F9101
:1003E0007F916F915F914F913F912F910F900BBE35
:1003F0000F900FBE0F901F9018951F920F920FB67F
:100400000F9211240BB60F922F933F934F935F934C
:100410006F937F938F939F93AF93BF93EF93FF93CC
:100420008DE099E00E94A006FF91EF91BF91AF91FE
:100430009F918F917F916F915F914F913F912F91FC
:100440000F900BBE0F900FBE0F901F9018951F922C
:100450000F920FB60F9211240BB60F922F933F936A
:100460004F935F936F937F938F939F93AF93BF93BC
:10047000CF93DF93EF93FF93C5EBD8E08A819B8105
:100480000E9434011B821A8287EB98E00E942301AC
:10049000FF91EF91DF91CF91BF91AF919F918F919C
:1004A0007F916F915F914F913F912F910F900BBE74
:1004B0000F900FBE0F901F9018951F920F920FB6BE
:1004C0000F9211240BB60F922F933F934F935F938C
:1004D0006F937F938F939F93AF93BF93CF93DF934C
:1004E000EF93FF93CFEBD8E08A819B810E94340188
:1004F0001B821A8281EC98E00E942301FF91EF9108
:10050000DF91CF91BF91AF919F918F917F916F912B
:100510005F914F913F912F910F900BBE0F900FBEA7
:100520000F901F9018951F920F920FB60F921124E3
:100530000BB60F922F933F934F935F936F937F93DD
:100540008F939F93AF93BF93CF93DF93EF93FF93DB
:10055000C9ECD8E08A819B810E9434011B821A82F7
:100560008BEC98E00E942301FF91EF91DF91CF91F6
:10057000BF91AF919F918F917F916F915F914F91BB
:100580003F912F910F900BBE0F900FBE0F901F90B9
:1005900018951F920F920FB60F9211240BB60F925F
:1005A0002F933F934F935F936F937F938F939F937B
:1005B000AF93BF93EF93FF938091A9089091AA08FE
:1005C0000E943401FF91EF91BF91AF919F918F9164
:1005D0007F916F915F914F913F912F910F900BBE43
:1005E0000F900FBE0F901F9018951F920F920FB68D
:1005F0000F9211240BB60F922F933F934F935F935B
:100600006F937F938F939F93AF93BF93EF93FF93DA
:100610008091A1089091A2080E94340181EA98E09B
:100620000E942301FF91EF91BF91AF919F918F9114
:100630007F916F915F914F913F912F910F900BBEE2
:100640000F900FBE0F901F9018951F920F920FB62C
:100650000F9211240BB60F922F933F934F935F93FA
:100660006F937F938F939F93AF93BF93EF93FF937A
:100670008091990890919A080E94340189E998E044
:100680000E942301FF91EF91BF91AF919F918F91B4
:100690007F916F915F914F913F912F910F900BBE82
:1006A0000F900FBE0F901F9018951F920F920FB6CC
:1006B0000F9211240BB60F922F933F934F935F939A
:1006C0006F937F938F939F93AF93BF93EF93FF931A
:1006D00080919108909192080E94340181E998E0FC
:1006E0000E942301FF91EF91BF91AF919F918F9154
:1006F0007F916F915F914F913F912F910F900BBE22
:100700000F900FBE0F901F9018951F920F920FB66B
:100710000F9211240BB60F922F933F934F935F9339
:100720006F937F938F939F93AF93BF93EF93FF93B9
:100730008091890890918A080E943401FF91EF917D
:10074000BF91AF919F918F917F916F915F914F91E9
:100750003F912F910F900BBE0F900FBE0F901F90E7
:1007600018954F925F926F927F928F929F92AF9265
:10077000BF92CF92DF92EF92FF920F931F93CF938E
:10078000DF935C016A01E90147012801612C712CAA
:10079000AB01662757FD6095762FAA2797FDA09598
:1007A000BA2F9A01AB01281B390B4A0B5B0BC30113
:1007B000B2010E941D08E12CF12C8701F394A801DD
:1007C00097010E947708A20EB31EAE01662757FD5F
:1007D0006095762FC601AA2797FDA095BA2F9A019A
:1007E000AB01281B390B4A0B5B0BC301B2010E9402
:1007F0001D08A80197010E9477082C0D3D1DA90135
:10080000662757FD6095762FC501AA2797FDA0950D
:10081000BA2F9A01AB01281B390B4A0B5B0BD40191
:100820000E941208A80197010E947708C501820F53
:10083000931FDF91CF911F910F91FF90EF90DF9069
:10084000CF90BF90AF909F908F907F906F905F9070
:100850004F900895CF92DF92EF92FF920F931F93E4
:10086000CF93DF93E72FFF27A52FBB271196C8E271
:10087000CA9F9001CB9F300D1124EC01C20FD31FF2
:100880006F01AFEFCA1ADA0A28523109820F931F9B
:100890007A01FF248B0111279E012C0D3D1DD901EA
:1008A0002C91332727FD3095CE0FDF1F4881552728
:1008B00047FD5095D601A80FB91F6C91772767FDAA
:1008C0007095E80FF91F8081992787FD90950E9408
:1008D000B103DF91CF911F910F91FF90EF90DF90C7
:1008E000CF9008958DE099E00E941C066CE070E0C6
:1008F0008DE099E00E94250668E08DE099E00E9475
:10090000310660E08DE099E00E94550661E08DE0DF
:1009100099E00E9469067894E0910909F0910A092A
:10092000908180910B09892B8083E0910509F091DA
:100930000609908180910B09809589238083E0913D
:100940000109F0910209908180910309892B80832C
:10095000E091FD08F091FE08908180910309809557
:1009600089238083E091F908F091FA0890818091C1
:10097000FB08892B8083E091F508F091F6089081BF
:100980008091FB08809589238083E091F108F091A4
:10099000F20890818091F308892B8083E091ED0823
:1009A000F091EE0890818091F308809589238083EF
:1009B0008AE698E090935909809358096CE578E0AD
:1009C0000E9408076EE478E08AE698E00E94080733
:1009D00060E478E08AE698E00E940807E091E90880
:1009E000F091EA0890818091EB08809589238083BB
:1009F000E091E508F091E60890818091EB08892B61
:100A00008083E0917E08F0917F080280F381E02DE1
:100A1000908180918008892B8083E091D608F091A5
:100A2000D7080280F381E02D90818091D808892B2E
:100A30008083E0917808F09179080280F381E02DBD
:100A4000908180917A08892B80838AE691E0909347
:100A5000AA088093A90889E391E09093A208809363
:100A6000A10888E491E090939A088093990880EE19
:100A700090E0909392088093910889EE90E0909393
:100A80008A088093890889EA98E00E94090189E828
:100A900098E00E94090180E3C82E85E7D82EE12C5A
:100AA000F12C90E8892E94E8992E9EE1A92EB12C84
:100AB000C8E6D1E02AED222E3324339401E219E076
:100AC00080912F098A3348F4E091F508F091F608F7
:100AD00090818091FB08892B80838FE599E00197B5
:100AE000F1F700C00000E091F508F091F608908160
:100AF0008091FB088095892380838FE599E0019799
:100B0000F1F700C0000080912F098B3320F48F5F34
:100B100080932F09D5CFC0925409D0925509E09205
:100B20005609F092570940902D0950902E09612CDA
:100B3000712CC701B601A30192010E9455083093A0
:100B40005B0920935A09C501B401A30192010E94D7
:100B50007708CA01B90120933209309333094093D1
:100B600034095093350940E050E080E092E00E9463
:100B70002A0490933109809330098DE099E00E9416
:100B8000B8068823A1F0809133098F9380913209B0
:100B90008F931F930F9386E399E09F938F930E9407
:100BA000A5080F900F900F900F900F900F9020912D
:100BB00030093091310989ED91E0821B930B40910E
:100BC0005A0950915B09841B950BBE010E94410894
:100BD000FC0190936B0880936A08C101821B930B00
:100BE000BE010E9441089C0190935D0880935C08BF
:100BF000CF018C549F4FBE010E942D0890934F0847
:100C000080934E08C9018C549F4FBE010E942D084D
:100C100090934108809340088DE099E00E94B806C7
:100C2000882339F04EE166E379E08DE099E00E9497
:100C3000760610922F0944CFDC011496ED91FC91B9
:100C400015978081886080830895DC011896ED9166
:100C5000FC91199770831A96ED91FC911B97608314
:100C60000895FC016623D1F0653059F4A481B58163
:100C70008C918D7F8C930680F781E02D80818D7F14
:100C800012C0663059F0673049F0683039F0693089
:100C900059F4A481B5818C9182608C930680F78190
:100CA000E02D8081826080830895FC01662351F0ED
:100CB000623011F0633061F40680F781E02D8081AD
:100CC000806105C00680F781E02D80818F7E808362
:100CD0000895DC011696ED91FC91179780816230A2
:100CE00011F4886001C0877F80830895FC01A4818E
:100CF000B5818C9185FDFDCF178675876487468702
:100D00008C9180628C930895CF93DF93FC0187854B
:100D10009685891760F4C081D181A485B585A80F17
:100D2000B11D8C91888387858F5F878706C004807B
:100D3000F581E02D80818F7D8083DF91CF910895B3
:100D4000FC0183899289891760F4A081B1819C910B
:100D5000A089B189A80FB11D9C9383898F5F838B74
:100D600008950480F581E02D80818F778083089538
:100D7000FC0181E027859685291380E00895FB0119
:100D8000DC011A962D913C911B973387228795871A
:100D900084871B967C936E931A97A285B3851097D0
:100DA00021F01D967C936E931C970895FB01DC0146
:100DB0001C962D913C911D973587248793878287B8
:100DC0001D967C936E931C97A485B585109721F092
:100DD0001B967C936E931A970895CF93DF93DC0153
:100DE0001A96ED91FC911B97309731F01C962D913E
:100DF0003C911D9735872487EC01AC85BD85109704
:100E000021F01B96FC93EE931A97DF91CF910895F2
:100E1000DB0112962D913C911397FC014281538185
:100E200024173507B0F4DC011C96ED91FC911D9759
:100E3000309711F40C94D60642815381241735075C
:100E4000C8F7CF01F0CF428153814217530740F4D6
:100E5000CF01DC011A96ED91FC911B97309799F721
:100E60000C94BF06CF93DF93EC01EC85FD853097A2
:100E700001F1228133818A819B8182179307C8F413
:100E8000CE010E94ED06EC85FD85309731F4BC0162
:100E9000CE01DF91CF910C94D60642815381DC01C3
:100EA00012962D913C9113972417350780F7EF0187
:100EB000EACFEA85FB85309701F1228133818A816F
:100EC0009B8128173907C8F4CE010E94ED06EA85F8
:100ED000FB85309731F4BC01CE01DF91CF910C94AA
:100EE000BF0642815381DC0112962D913C911397EC
:100EF0004217530780F7EF01EACFDF91CF910895B2
:100F00009F92AF92BF92CF92DF92EF92FF920F9398
:100F10001F93CF93DF93EC01B62EA72E7A016901C0
:100F200006E010E09924939428813981F9018681A3
:100F300097818E159F0509F069C0D90118964D91CA
:100F40005C9119974115510531F41496ED91FC917E
:100F5000159719953CC0EB2DFA2D80819181009752
:100F600081F5BE2EAF2EC49EC001C59E900DD49EAD
:100F7000900D1124B8010E942D08A085B18511960D
:100F80007C936E93D90114968D919C9115979383C0
:100F90008283858181111BC0A681B7810D90BC9190
:100FA000A02D9C918481892B8C93A681B781129668
:100FB0000D90BC91A02D9C918481892B8C9395825E
:100FC00006C062817381672B61F2FC01C6CFE881A4
:100FD000F98120813181828193818217930779F091
:100FE00033832283C901B8010E942D08918780872D
:100FF000281B390B37832683CF010E943207E881F3
:10100000F98182859385998388838ECFDF91CF91F3
:101010001F910F91FF90EF90DF90CF90BF90AF9016
:101020009F9008950E949608A59F900DB49F900DE3
:10103000A49F800D911D11240895DB018F939F9330
:101040000E941208BF91AF91A29F800D911DA39F96
:10105000900DB29F900D11240895AA1BBB1B51E166
:1010600007C0AA1FBB1FA617B70710F0A61BB70B18
:10107000881F991F5A95A9F780959095BC01CD01BD
:10108000089597FB072E16F4009407D077FD09D03A
:101090000E942D0807FC05D03EF4909581959F4F46
:1010A0000895709561957F4F0895A1E21A2EAA1BAD
:1010B000BB1BFD010DC0AA1FBB1FEE1FFF1FA21708
:1010C000B307E407F50720F0A21BB30BE40BF50B05
:1010D000661F771F881F991F1A9469F7609570958E
:1010E000809590959B01AC01BD01CF010895052E1F
:1010F00097FB1EF400940E948E0857FD07D00E94B3
:10110000550807FC03D04EF40C948E08509540957A
:10111000309521953F4F4F4F5F4F089590958095A3
:10112000709561957F4F8F4F9F4F0895A29FB0019B
:10113000B39FC001A39F700D811D1124911DB29F0B
:10114000700D811D1124911D08950F931F93CF934E
:10115000DF93CDB7DEB72E970FB6F894DEBF0FBE84
:10116000CDBF0E891F8986E08C831A8309838FEF98
:101170009FE79E838D83AE01465E5F4F688D798DBC
:10118000CE0101960E94D5082F813885F801E20F23
:10119000F31F10822E960FB6F894DEBF0FBECDBFA0
:1011A000DF91CF911F910F9108952F923F924F920F
:1011B0005F926F927F928F929F92AF92BF92CF92E7
:1011C000DF92EF92FF920F931F93CF93DF93CDB7F0
:1011D000DEB72C970FB6F894DEBF0FBECDBF7C01F3
:1011E0006B018A01FC0117821682838181FFBDC1D8
:1011F000CE0101964C01F7019381F60193FD859193
:1012000093FF81916F01882309F4ABC1853239F4D2
:1012100093FD859193FF81916F01853229F4B70188
:1012200090E00E94E60AE7CF512C312C20E02032DA
:10123000A0F48B3269F030F4803259F0833269F4D3
:1012400020612CC08D3239F0803339F4216026C002
:101250002260246023C0286021C027FD27C030ED14
:10126000380F3A3078F426FF06C0FAE05F9E300D62
:101270001124532E13C08AE0389E300D1124332ED2
:1012800020620CC08E3221F426FD6BC1206406C0A2
:101290008C3611F4206802C0883641F4F60193FDC3
:1012A000859193FF81916F018111C1CF982F9F7D0F
:1012B0009554933028F40C5F1F4FFFE3F9830DC062
:1012C000833631F0833771F0833509F05BC022C07B
:1012D000F801808189830E5F1F4F44244394512C71
:1012E000540115C03801F2E06F0E711CF801A080A6
:1012F000B18026FF03C0652D70E002C06FEF7FEF65
:10130000C5012C870E94DB0A2C0183012C852F77D5
:10131000222E17C03801F2E06F0E711CF801A08078
:10132000B18026FF03C0652D70E002C06FEF7FEF34
:10133000C5012C870E94D00A2C012C852068222E02
:10134000830123FC1BC0832D90E048165906B0F49E
:10135000B70180E290E00E94E60A3A94F4CFF501EA
:1013600027FC859127FE81915F01B70190E00E94E3
:10137000E60A31103A94F1E04F1A51084114510431
:1013800071F7E5C0843611F0893639F5F80127FF89
:1013900007C060817181828193810C5F1F4F08C0FB
:1013A00060817181882777FD8095982F0E5F1F4F90
:1013B0002F76722E97FF09C0909580957095619554
:1013C0007F4F8F4F9F4F2068722E2AE030E0A4019C
:1013D0000E941E0BA82EA81844C0853729F42F7E22
:1013E000B22E2AE030E025C0F22FF97FBF2E8F36D3
:1013F000C1F018F4883579F0B4C0803719F0883717
:1014000021F0AFC02F2F2061B22EB4FE0DC08B2D66
:101410008460B82E09C024FF0AC09F2F9660B92EA1
:1014200006C028E030E005C020E130E002C020E145
:1014300032E0F801B7FE07C060817181828193813B
:101440000C5F1F4F06C06081718180E090E00E5FED
:101450001F4FA4010E941E0BA82EA818FB2DFF777A
:101460007F2E76FE0BC0372D3E7FA51450F474FE00
:101470000AC072FC08C0372D3E7E05C0BA2C372D3D
:1014800003C0BA2C01C0B52C34FF0DC0FE01EA0D1B
:10149000F11D8081803311F4397E09C032FF06C00E
:1014A000B394B39404C0832F867809F0B39433FDCA
:1014B00013C030FF06C05A2CB31418F4530C5B1839
:1014C000B32CB31468F4B70180E290E03C870E942B
:1014D000E60AB3943C85F5CFB31410F43B1801C071
:1014E000312C34FF12C0B70180E390E03C870E94AA
:1014F000E60A3C8532FF17C031FD03C088E790E063
:1015000002C088E590E0B7010CC0832F867859F0BF
:1015100031FF02C08BE201C080E237FD8DE2B701EE
:1015200090E00E94E60AA51438F4B70180E390E049
:101530000E94E60A5A94F7CFAA94F401EA0DF11D2D
:101540008081B70190E00E94E60AA110F5CF332018
:1015500009F451CEB70180E290E00E94E60A3A9485
:10156000F6CFF7018681978102C08FEF9FEF2C960F
:101570000FB6F894DEBF0FBECDBFDF91CF911F91A4
:101580000F91FF90EF90DF90CF90BF90AF909F9022
:101590008F907F906F905F904F903F902F90089525
:1015A000FC010590615070400110D8F7809590952E
:1015B0008E0F9F1F0895FC01615070400190011033
:1015C000D8F7809590958E0F9F1F08950F931F93C6
:1015D000CF93DF93FB01238121FD03C08FEF9FEFAA
:1015E00028C022FF16C046815781248135814217C9
:1015F000530744F4A081B1819D012F5F3F4F318398
:1016000020838C93268137812F5F3F4F378326833A
:1016100010C0EB01092F182F0084F185E02D1995DA
:10162000892BE1F68E819F8101969F838E83812F86
:10163000902FDF91CF911F910F910895FA01AA2762
:10164000283051F1203181F1E8946F936E7F6E5F05
:101650007F4F8F4F9F4FAF4FB1E03ED0B4E03CD0B3
:10166000670F781F891F9A1FA11D680F791F8A1F96
:10167000911DA11D6A0F711D811D911DA11D20D0FD
:1016800009F468943F912AE0269F11243019305DB7
:101690003193DEF6CF010895462F4770405D4193A8
:1016A000B3E00FD0C9F7F6CF462F4F70405D4A33F5
:1016B00018F0495D31FD4052419302D0A9F7EACFBD
:1016C000B4E0A6959795879577956795BA95C9F7EC
:1016D00000976105710508959B01AC010A2E0694DF
:1016E0005795479537952795BA95C9F7620F731F98
:0C16F000841F951FA01D0895F894FFCFE3
:1016FC00050A0F14191E23282D32373C41464B5036
:10170C00555A5F640000000000000000000000005B
:10171C000000000000000000FB00050A0F14191E59
:10172C0023282D32373C41464B50555A5F00000060
:10173C00000000000000000000000000000000009D
:10174C00000000000000000000000000000000008D
:10175C00000000000000000000000000000000007D
:10176C00000000000000000000000000000000006D
:101D3C0026012601D4002601000000000000B4009A
:101D4C00B400C900B4000000000000007200720072
:101D5C00BD00720000000000000000000000B20096
:101D6C00000000000000000081084081080081088C
:101D7C0002200121012201240100000100B1080010
:101D8C000000000800B1082C0100000400B1082A72
:101D9C000100000200B108280100002000B1082653
:101DAC00013A007300BF0800000200E108A800C956
:101DBC000800000400E108AA00000000000800E18F
:101DCC0008AC00D90800D90802A000A100A200A408
:101DDC0000390072000B0109010A010200250023E1
:101DEC00002400800025002300240040002500234F
:101DFC0000240020002500230024001000C600C091
:101E0C0000C100C200C500C40000000000000000BA
:0A1E1C000052504D202564200A00FA
:00000001FF
