:100000000C9484000C94A5000C94A5000C94A500FD
:100010000C94A5000C94A5000C94A5000C94A500CC
:100020000C94A5000C94A5000C94A5000C94A500BC
:100030000C94A5000C94A5000C94A5000C94A500AC
:100040000C94A5000C94A5000C94A5000C94A5009C
:100050000C94A5000C94A5000C94A5000C94A5008C
:100060000C94A5000C945A020C9430020C94A50038
:100070000C94A5000C94A5000C94A5000C94A5006C
:100080000C94A5000C94A5000C94A5000C94A5005C
:100090000C94A5000C94A5000C94A5000C94A5004C
:1000A0000C94A5000C94A5000C9484020C94B90245
:1000B0000C94EF020C94A5000C9425030C945103AE
:1000C0000C9481030C94B1030C94E1030C94A500EF
:1000D0000C94A5000C94A5000C94A5000C94A5000C
:1000E0000C94A5000C9496010C94E0000C94C900AB
:1000F0000C94D4000C94E9000C94B2000C94A5016B
:100100000C94BD000C94C70111241FBECFEFD1E2A7
:10011000DEBFCDBF00E00CBF19E0A0E0B2E0E0E040
:10012000F5E100E00BBF02C007900D92A232B107CB
:10013000D9F719E0A2E2B9E001C01D92AD34B107D0
:10014000E1F70E94CE040C947E0A0C940000AFEDFF
:10015000B8E0ED91FC911197908116968C91892BC6
:1001600080830895AFEEB8E0ED91FC9111979081F6
:1001700016968C91892B80830895AFEEB8E0ED91AF
:10018000FC911197908116968C918095892380839C
:100190000895A7EFB8E0ED91FC9111979081169624
:1001A0008C91892B80830895A7EFB8E0ED91FC91A5
:1001B0001197908116968C9180958923808308955C
:1001C000109225091092240981E0809323090C9450
:1001D000A7001092250910922409109223090C946B
:1001E000A700FC018381811115C0A481B5810D9008
:1001F000BC91A02D9C918281892B8C93A481B58187
:1002000012960D90BC91A02D9C918281892B8C938C
:1002100081E083830895FC018381882361F0A481B8
:10022000B58112960D90BC91A02D9C9182818095F4
:1002300089238C9313820895009711F0FC0119947F
:1002400008950F931F93CF93DF931092220906E036
:1002500010E0C0914909D0914A09809124099091F8
:1002600025092C813D812817390709F055C02E81B9
:100270003F812115310519F08091220904C0E885DC
:10028000F98519952AC091E0980F48E0849FF00104
:100290001124E554F74F40815181452B11F0892FEE
:1002A000F2CF809322094091260950912709249F7B
:1002B000C001259F900D349F900D1124B8010E941C
:1002C0002F07A681B78111967C936E9388859985B7
:1002D00091838083CF010E94F100E0914909F09160
:1002E0004A0920813181828193818217930759F0D5
:1002F000C901B8010E942F0797838683A901481B73
:10030000590B55834483338322838285938590934D
:100310004A09809349099DCF0696909325098093B9
:100320002409DF91CF911F910F910895EDEAF8E034
:10033000A081B18116960D90BC91A02D828190E094
:1003400011969C938E930C942101E3E7F8E0A08131
:10035000B18116960D90BC91A02D828190E01196EE
:100360009C938E93EDEAF8E0A081B18116960D90F2
:10037000BC91A02D828190E011969C938E930E9457
:10038000210110922509109224090C94A700E091F4
:100390007308F09174080680F781E02D809175084C
:1003A00090E091838083E091AD08F091AE080680E3
:1003B000F781E02D8091AF0890E091838083E091F8
:1003C000A708F091A80880819181909327098093D4
:1003D00026099C0136952795880F991F820F931F38
:1003E000E0918F08F09190089183808389E898E0EC
:1003F0000E94F10080912309882339F10E94210194
:1004000080912409909125098C359140F1F48091D7
:10041000260990912709E0919F08F091A008918307
:10042000808389E998E00E94F100809126099091EB
:100430002709880F991FE0919708F09198089183F8
:10044000808381E998E00E94F100E091DF08F0915B
:10045000E00890818091E508809589238083089544
:100460001F920F920FB60F9211240BB60F922F937B
:100470003F934F935F936F937F938F939F93AF932C
:10048000BF93EF93FF938FEF98E00E94D906FF91FF
:10049000EF91BF91AF919F918F917F916F915F91FC
:1004A0004F913F912F910F900BBE0F900FBE0F9069
:1004B0001F9018951F920F920FB60F9211240BB632
:1004C0000F922F933F934F935F936F937F938F93ED
:1004D0009F93AF93BF93EF93FF938FEF98E00E94AA
:1004E000F506FF91EF91BF91AF919F918F917F9111
:1004F0006F915F914F913F912F910F900BBE0F9095
:100500000FBE0F901F9018951F920F920FB60F926B
:1005100011240BB60F922F933F934F935F936F93DA
:100520007F938F939F93AF93BF93CF93DF93EF937B
:10053000FF93CBEBD8E0888199810E941C0119823E
:100540001882CE010E940B01FF91EF91DF91CF91B4
:10055000BF91AF919F918F917F916F915F914F91DB
:100560003F912F910F900BBE0F900FBE0F901F90D9
:1005700018951F920F920FB60F9211240BB60F927F
:100580002F933F934F935F936F937F938F939F939B
:10059000AF93BF93CF93DF93EF93FF93CBEBD8E071
:1005A000888599850E941C011986188683EC98E03D
:1005B0000E940B01FF91EF91DF91CF91BF91AF911D
:1005C0009F918F917F916F915F914F913F912F916B
:1005D0000F900BBE0F900FBE0F901F9018951F929B
:1005E0000F920FB60F9211240BB60F922F933F93D9
:1005F0004F935F936F937F938F939F93AF93BF932B
:10060000CF93DF93EF93FF93CBEBD8E08889998961
:100610000E941C01198A188A8BEC98E00E940B0139
:10062000FF91EF91DF91CF91BF91AF919F918F910A
:100630007F916F915F914F913F912F910F900BBEE2
:100640000F900FBE0F901F9018951F920F920FB62C
:100650000F9211240BB60F922F933F934F935F93FA
:100660006F937F938F939F93AF93BF93EF93FF937A
:100670008091A1089091A2080E941C01FF91EF9126
:10068000BF91AF919F918F917F916F915F914F91AA
:100690003F912F910F900BBE0F900FBE0F901F90A8
:1006A00018951F920F920FB60F9211240BB60F924E
:1006B0002F933F934F935F936F937F938F939F936A
:1006C000AF93BF93EF93FF938091990890919A080D
:1006D0000E941C0189E998E00E940B01FF91EF91B3
:1006E000BF91AF919F918F917F916F915F914F914A
:1006F0003F912F910F900BBE0F900FBE0F901F9048
:1007000018951F920F920FB60F9211240BB60F92ED
:100710002F933F934F935F936F937F938F939F9309
:10072000AF93BF93EF93FF938091910890919208BC
:100730000E941C0181E998E00E940B01FF91EF915A
:10074000BF91AF919F918F917F916F915F914F91E9
:100750003F912F910F900BBE0F900FBE0F901F90E7
:1007600018951F920F920FB60F9211240BB60F928D
:100770002F933F934F935F936F937F938F939F93A9
:10078000AF93BF93EF93FF938091890890918A086C
:100790000E941C0189E898E00E940B01FF91EF91F3
:1007A000BF91AF919F918F917F916F915F914F9189
:1007B0003F912F910F900BBE0F900FBE0F901F9087
:1007C00018951F920F920FB60F9211240BB60F922D
:1007D0002F933F934F935F936F937F938F939F9349
:1007E000AF93BF93EF93FF9380918108909182081C
:1007F0000E941C01FF91EF91BF91AF919F918F914A
:100800007F916F915F914F913F912F910F900BBE10
:100810000F900FBE0F901F9018954F925F926F929E
:100820007F928F929F92AF92BF92CF92DF92EF9280
:10083000FF920F931F93CF93DF935C016A01E9014D
:1008400047012801612C712CAB01662757FD60958B
:10085000762FAA2797FDA095BA2F9A01AB01281BE6
:10086000390B4A0B5B0BC301B2010E941F07E12C3D
:10087000F12C8701F394A80197010E945707A20E5B
:10088000B31EAE01662757FD6095762FC601AA27D5
:1008900097FDA095BA2F9A01AB01281B390B4A0B83
:1008A0005B0BC301B2010E941F07A80197010E94C0
:1008B00057072C0D3D1DA901662757FD6095762F22
:1008C000C501AA2797FDA095BA2F9A01AB01281B55
:1008D000390B4A0B5B0BD4010E941407A801970146
:1008E0000E945707C501820F931FDF91CF911F917F
:1008F0000F91FF90EF90DF90CF90BF90AF909F90BF
:100900008F907F906F905F904F900895CF92DF927D
:10091000EF92FF920F931F93CF93DF93E72FFF2761
:10092000A52FBB271196C8E2CA9F9001CB9F300D1F
:100930001124EC01C20FD31F6F01AFEFCA1ADA0AFC
:1009400028523109820F931F7A01FF248B0111274E
:100950009E012C0D3D1DD9012C91332727FD30958B
:10096000CE0FDF1F4881552747FD5095D601A80FB0
:10097000B91F6C91772767FD7095E80FF91F80818B
:10098000992787FD90950E940D04DF91CF911F91CB
:100990000F91FF90EF90DF90CF9008958FEF98E048
:1009A0000E9471066CE070E08FEF98E00E947A067A
:1009B00068E08FEF98E00E94860660E08FEF98E095
:1009C0000E94AA0661E08FEF98E00E94BE0678942C
:1009D000E091FB08F091FC0890818091FD08892B43
:1009E0008083E091F708F091F80890818091FD08EC
:1009F000809589238083E091F308F091F408908139
:100A00008091F508892B8083E091EF08F091F00840
:100A100090818091F508809589238083E091EB088F
:100A2000F091EC0890818091ED08892B8083E09112
:100A3000E708F091E80890818091ED08809589237E
:100A40008083E091E308F091E40890818091E508CB
:100A5000892B8083E091DF08F091E00890818091FC
:100A6000E50880958923808384E698E090934A097D
:100A70008093490928E538E030936F0820936E0889
:100A80002CE438E0309363082093620820E438E0D7
:100A9000309357082093560890934B0880934A0848
:100AA000E091DB08F091DC0890818091DD08809571
:100AB00089238083E091D708F091D80890818091B4
:100AC000DD08892B8083E0917608F0917708028019
:100AD000F381E02D908180917808892B8083E091CB
:100AE000B008F091B1080280F381E02D90818091EF
:100AF000B208892B8083E0917008F0917108028020
:100B0000F381E02D908180917208892B808387EC9E
:100B100091E09093A2088093A10886E991E09093D8
:100B20009A088093990885EA91E0909392088093BF
:100B3000910880EE90E090938A088093890889EE6E
:100B400090E0909382088093810881EA98E00E9467
:100B5000F10081E898E00E94F10086E0482E512CD7
:100B600090E1692E97E2792E20E8822E24E8922ED9
:100B70002EE1A22EB12C39EDC32EDD24D394C8E68C
:100B8000D1E04AEDE42EFF24F39403E119E08091D3
:100B900028098A3348F4E091E708F091E808908149
:100BA0008091ED08892B80838FE79CE00197F1F716
:100BB00000C00000E091E708F091E8089081809182
:100BC000ED088095892380838FE79CE00197F1F7FA
:100BD00000C00000809128098B3320F48F5F809340
:100BE0002809D5CF2091260930912709C901B201E2
:100BF0000E942F07C3010E942F0770934C09609336
:100C00004B0940E050E0C501B4010E945707CA01FA
:100C1000B90140E050E080E092E00E9486049093A9
:100C20002A09809329098FEF98E00E940D078823F5
:100C3000A1F080914C098F9380914B098F931F9362
:100C40000F938BE299E09F938F930E94A7070F90D9
:100C50000F900F900F900F900F90209129093091D5
:100C60002A09C601821B930B40914B0950914C09F4
:100C7000841B950BBE010E944307FC0190936508FD
:100C800080936408C701821B930BBE010E94430737
:100C90009C019093590880935808CF018C549F4F22
:100CA000BE010E942F0790934D0880934C08C90104
:100CB0008C549F4FBE010E942F0790934108809350
:100CC00040088FEF98E00E940D07882339F04EE12D
:100CD0006BE279E08FEF98E00E94CB061092280932
:100CE00056CFDC011496ED91FC91159780818860B8
:100CF00080830895DC011896ED91FC91199770831B
:100D00001A96ED91FC911B9760830895FC01662370
:100D1000D1F0653059F4A481B5818C918D7F8C938D
:100D20000680F781E02D80818D7F12C0663059F0FA
:100D3000673049F0683039F0693059F4A481B581E1
:100D40008C9182608C930680F781E02D8081826097
:100D500080830895FC01662351F0623011F0633006
:100D600061F40680F781E02D8081806105C00680F6
:100D7000F781E02D80818F7E80830895DC011696B7
:100D8000ED91FC9117978081623011F4886001C069
:100D9000877F80830895FC01A481B5818C9185FDB6
:100DA000FDCF17867587648746878C9180628C9308
:100DB0000895CF93DF93FC0187859685891760F4AA
:100DC000C081D181A485B585A80FB11D8C91888380
:100DD00087858F5F878706C00480F581E02D80813D
:100DE0008F7D8083DF91CF910895FC018389928963
:100DF000891760F4A081B1819C91A089B189A80F65
:100E0000B11D9C9383898F5F838B08950480F58146
:100E1000E02D80818F7780830895FC0181E0278514
:100E20009685291380E008950E947607A59F900D6E
:100E3000B49F900DA49F800D911D11240895DB0196
:100E40008F939F930E941407BF91AF91A29F800D33
:100E5000911DA39F900DB29F900D11240895AA1B80
:100E6000BB1B51E107C0AA1FBB1FA617B70710F095
:100E7000A61BB70B881F991F5A95A9F780959095C7
:100E8000BC01CD01089597FB072E16F4009407D0FE
:100E900077FD09D00E942F0707FC05D03EF49095FE
:100EA00081959F4F0895709561957F4F0895052E08
:100EB00097FB1EF400940E946E0757FD07D00E9416
:100EC000850707FC03D04EF40C946E0750954095AF
:100ED000309521953F4F4F4F5F4F089590958095E6
:100EE000709561957F4F8F4F9F4F0895A29FB001DE
:100EF000B39FC001A39F700D811D1124911DB29F4E
:100F0000700D811D1124911D0895A1E21A2EAA1BB6
:100F1000BB1BFD010DC0AA1FBB1FEE1FFF1FA217A9
:100F2000B307E407F50720F0A21BB30BE40BF50BA6
:100F3000661F771F881F991F1A9469F7609570952F
:100F4000809590959B01AC01BD01CF0108950F9351
:100F50001F93CF93DF93CDB7DEB72E970FB6F894DC
:100F6000DEBF0FBECDBF0E891F8986E08C831A833A
:100F700009838FEF9FE79E838D83AE01465E5F4FAF
:100F8000688D798DCE0101960E94D7072F81388513
:100F9000F801E20FF31F10822E960FB6F894DEBF11
:100FA0000FBECDBFDF91CF911F910F9108952F926A
:100FB0003F924F925F926F927F928F929F92AF92E9
:100FC000BF92CF92DF92EF92FF920F931F93CF9336
:100FD000DF93CDB7DEB72C970FB6F894DEBF0FBE08
:100FE000CDBF7C016B018A01FC01178216828381CF
:100FF00081FFBDC1CE0101964C01F7019381F6013D
:1010000093FD859193FF81916F01882309F4ABC112
:10101000853239F493FD859193FF81916F0185327B
:1010200029F4B70190E00E94E809E7CF512C312C58
:1010300020E02032A0F48B3269F030F4803259F095
:10104000833269F420612CC08D3239F0803339F459
:10105000216026C02260246023C0286021C027FDB3
:1010600027C030ED380F3A3078F426FF06C0FAE09A
:101070005F9E300D1124532E13C08AE0389E300D30
:101080001124332E20620CC08E3221F426FD6BC158
:10109000206406C08C3611F4206802C0883641F402
:1010A000F60193FD859193FF81916F018111C1CF6D
:1010B000982F9F7D9554933028F40C5F1F4FFFE3CA
:1010C000F9830DC0833631F0833771F0833509F031
:1010D0005BC022C0F801808189830E5F1F4F4424CA
:1010E0004394512C540115C03801F2E06F0E711C6D
:1010F000F801A080B18026FF03C0652D70E002C01A
:101100006FEF7FEFC5012C870E94DD092C01830161
:101110002C852F77222E17C03801F2E06F0E711C3C
:10112000F801A080B18026FF03C0652D70E002C0E9
:101130006FEF7FEFC5012C870E94D2092C012C850F
:101140002068222E830123FC1BC0832D90E04816CB
:101150005906B0F4B70180E290E00E94E8093A94A1
:10116000F4CFF50127FC859127FE81915F01B7013E
:1011700090E00E94E80931103A94F1E04F1A5108CA
:101180004114510471F7E5C0843611F0893639F500
:10119000F80127FF07C060817181828193810C5F14
:1011A0001F4F08C060817181882777FD8095982F37
:1011B0000E5F1F4F2F76722E97FF09C09095809576
:1011C000709561957F4F8F4F9F4F2068722E2AE058
:1011D00030E0A4010E94200AA82EA81844C0853738
:1011E00029F42F7EB22E2AE030E025C0F22FF97FBD
:1011F000BF2E8F36C1F018F4883579F0B4C080372F
:1012000019F0883721F0AFC02F2F2061B22EB4FE25
:101210000DC08B2D8460B82E09C024FF0AC09F2FFB
:101220009660B92E06C028E030E005C020E130E02D
:1012300002C020E132E0F801B7FE07C06081718191
:10124000828193810C5F1F4F06C06081718180E0B5
:1012500090E00E5F1F4FA4010E94200AA82EA8183C
:10126000FB2DFF777F2E76FE0BC0372D3E7FA5141A
:1012700050F474FE0AC072FC08C0372D3E7E05C0D3
:10128000BA2C372D03C0BA2C01C0B52C34FF0DC0C9
:10129000FE01EA0DF11D8081803311F4397E09C011
:1012A00032FF06C0B394B39404C0832F867809F04C
:1012B000B39433FD13C030FF06C05A2CB31418F496
:1012C000530C5B18B32CB31468F4B70180E290E0C0
:1012D0003C870E94E809B3943C85F5CFB31410F421
:1012E0003B1801C0312C34FF12C0B70180E390E0FD
:1012F0003C870E94E8093C8532FF17C031FD03C0DE
:1013000088E790E002C088E590E0B7010CC0832F29
:10131000867859F031FF02C08BE201C080E237FDD0
:101320008DE2B70190E00E94E809A51438F4B701F6
:1013300080E390E00E94E8095A94F7CFAA94F40160
:10134000EA0DF11D8081B70190E00E94E809A1102B
:10135000F5CF332009F451CEB70180E290E00E942E
:10136000E8093A94F6CFF7018681978102C08FEFA2
:101370009FEF2C960FB6F894DEBF0FBECDBFDF9166
:10138000CF911F910F91FF90EF90DF90CF90BF9082
:10139000AF909F908F907F906F905F904F903F9015
:1013A0002F900895FC010590615070400110D8F70E
:1013B000809590958E0F9F1F0895FC01615070409D
:1013C00001900110D8F7809590958E0F9F1F08957A
:1013D0000F931F93CF93DF93FB01238121FD03C064
:1013E0008FEF9FEF28C022FF16C0468157812481CE
:1013F00035814217530744F4A081B1819D012F5FCD
:101400003F4F318320838C93268137812F5F3F4F5D
:101410003783268310C0EB01092F182F0084F18534
:10142000E02D1995892BE1F68E819F8101969F838E
:101430008E83812F902FDF91CF911F910F9108956F
:10144000FA01AA27283051F1203181F1E8946F93F5
:101450006E7F6E5F7F4F8F4F9F4FAF4FB1E03ED09B
:10146000B4E03CD0670F781F891F9A1FA11D680F39
:10147000791F8A1F911DA11D6A0F711D811D911D6C
:10148000A11D20D009F468943F912AE0269F1124E1
:101490003019305D3193DEF6CF010895462F477045
:1014A000405D4193B3E00FD0C9F7F6CF462F4F70A0
:1014B000405D4A3318F0495D31FD4052419302D0FE
:1014C000A9F7EACFB4E0A6959795879577956795A4
:1014D000BA95C9F700976105710508959B01AC01A4
:1014E0000A2E06945795479537952795BA95C9F7CB
:1014F000620F731F841F951FA01D0895F894FFCFDE
:10150000050A0F14191E23282D32373C41464B5033
:10151000555A5F6400000000000000000000000059
:101520000000000000000000FB00050A0F14191E57
:1015300023282D32373C41464B50555A5F0000005E
:10154000000000000000000000000000000000009B
:10155000000000000000000000000000000000008B
:10156000000000000000000000000000000000007B
:10157000000000000000000000000000000000006B
:101B40002601260126010000D4000000B400B400E4
:101B5000B4000000C90000007200720072000000B2
:101B6000BD0000000000000000000000B200000006
:101B70007908407908007908022001210122012416
:101B80000100000100A908000000000800A9082CBD
:101B90000100000400A9082A0100000200A9082889
:101BA0000100002000A90826013A007300B30800D4
:101BB000B30802A000A100A200A40000000200D30C
:101BC00008A80000000400D308AA0000000800D301
:101BD00008AC00390072000B0109010A010200255E
:101BE000002300240080002500230024004000255D
:101BF000002300240020002500230024001000C63C
:101C000000C000C100C200C500C400000000000008
:101C10000000006F6E20616E676C65202564200AED
:021C20000000C2
:00000001FF
