:100000000C9484000C94A5000C94A5000C94A500FD
:100010000C94A5000C94A5000C94A5000C94A500CC
:100020000C94A5000C94A5000C94A5000C94A500BC
:100030000C94A5000C94A5000C94A5000C94A500AC
:100040000C94A5000C94A5000C94A5000C94A5009C
:100050000C94A5000C94A5000C94A5000C94A5008C
:100060000C94A5000C94AD010C9483010C94A50094
:100070000C94A5000C94A5000C94A5000C94A5006C
:100080000C94A5000C94A5000C94A5000C94A5005C
:100090000C94A5000C94A5000C94A5000C94A5004C
:1000A0000C94A5000C94A5000C94D7010C940102AB
:1000B0000C942B020C94A5000C9455020C947F0216
:1000C0000C94AD020C94DB020C9409030C94A50073
:1000D0000C94A5000C94A5000C94A5000C94A5000C
:1000E0000C94A5000C941F010C943E030C947D010C
:1000F0000C9414010C946E010C9456030C942B0177
:100100000C9442010C94360111241FBECFEFD1E2B2
:10011000DEBFCDBF00E00CBF13E0A0E0B2E0E4EF33
:10012000FDE000E00BBF02C007900D92A831B107BF
:10013000D9F713E0A8E1B3E001C01D92AB34B107D9
:10014000E1F70E94C9040C94F8060C940000FC012D
:100150008381811115C0A481B5810D90BC91A02D22
:100160009C918281892B8C93A481B58112960D90EC
:10017000BC91A02D9C918281892B8C9381E08383FB
:100180000895FC018381882361F0A481B5811296D2
:100190000D90BC91A02D9C918281809589238C9398
:1001A00013820895FC01718360830895DC01ED9151
:1001B000FC91309709F019940895DC011696ED91A1
:1001C000FC911797808191810895DC011696ED913D
:1001D000FC911797718360830895DC01ED91FC9188
:1001E00011970280F381E02D908112968C91892BDA
:1001F00080830895DC01ED91FC9111970680F781D1
:10020000E02D12968C9190E0918380830895DC011B
:10021000ED91FC9111970280F381E02D908112966F
:100220008C91892B80830895A8E5B2E0ED91FC9133
:100230001197908116968C91892B80830895A8E55B
:10024000B2E0ED91FC911197908116968C9180957A
:10025000892380830895A0E5B2E0ED91FC91119788
:10026000908116968C91892B80830895A0E5B2E049
:10027000ED91FC911197908116968C918095892330
:100280008083089510921A031092190381E08093DD
:1002900018030895EF92FF920F931F93E0901903B4
:1002A000F0901A0300911B0310911C032DE932E01A
:1002B0004BEA52E06DE173E089E493E00E94850629
:1002C0008091190390911A03069690931A038093D4
:1002D00019031F910F91FF90EF90089583E692E02C
:1002E0000E94FA008DE992E00E94FA000E944A0101
:1002F00010921A031092190308958DE992E00E945A
:10030000FA000C944A011F920F920FB60F9211241B
:100310000BB60F922F933F934F935F936F937F93FF
:100320008F939F93AF93BF93EF93FF938DEC92E0E6
:100330000E943D05FF91EF91BF91AF919F918F91E9
:100340007F916F915F914F913F912F910F900BBED5
:100350000F900FBE0F901F9018951F920F920FB61F
:100360000F9211240BB60F922F933F934F935F93ED
:100370006F937F938F939F93AF93BF93EF93FF936D
:100380008DEC92E00E945905FF91EF91BF91AF91E2
:100390009F918F917F916F915F914F913F912F919D
:1003A0000F900BBE0F900FBE0F901F9018951F92CD
:1003B0000F920FB60F9211240BB60F922F933F930B
:1003C0004F935F936F937F938F939F93AF93BF935D
:1003D000EF93FF938BEA92E00E943906FF91EF9131
:1003E000BF91AF919F918F917F916F915F914F914D
:1003F0003F912F910F900BBE0F900FBE0F901F904B
:1004000018951F920F920FB60F9211240BB60F92F0
:100410002F933F934F935F936F937F938F939F930C
:10042000AF93BF93EF93FF9385EB92E00E94390661
:10043000FF91EF91BF91AF919F918F917F916F91BC
:100440005F914F913F912F910F900BBE0F900FBE78
:100450000F901F9018951F920F920FB60F921124B4
:100460000BB60F922F933F934F935F936F937F93AE
:100470008F939F93AF93BF93EF93FF938FEB92E094
:100480000E943906FF91EF91BF91AF919F918F919B
:100490007F916F915F914F913F912F910F900BBE84
:1004A0000F900FBE0F901F9018951F920F920FB6CE
:1004B0000F9211240BB60F922F933F934F935F939C
:1004C0006F937F938F939F93AF93BF93EF93FF931C
:1004D00081E992E00E94D600FF91EF91BF91AF9128
:1004E0009F918F917F916F915F914F913F912F914C
:1004F0000F900BBE0F900FBE0F901F9018951F927C
:100500000F920FB60F9211240BB60F922F933F93B9
:100510004F935F936F937F938F939F93AF93BF930B
:10052000EF93FF9389E892E00E94D60089E892E079
:100530000E94C100FF91EF91BF91AF919F918F9168
:100540007F916F915F914F913F912F910F900BBED3
:100550000F900FBE0F901F9018951F920F920FB61D
:100560000F9211240BB60F922F933F934F935F93EB
:100570006F937F938F939F93AF93BF93EF93FF936B
:1005800081E892E00E94D60081E892E00E94C100DA
:10059000FF91EF91BF91AF919F918F917F916F915B
:1005A0005F914F913F912F910F900BBE0F900FBE17
:1005B0000F901F9018951F920F920FB60F92112453
:1005C0000BB60F922F933F934F935F936F937F934D
:1005D0008F939F93AF93BF93EF93FF9389E792E03D
:1005E0000E94D60089E792E00E94C100FF91EF913E
:1005F000BF91AF919F918F917F916F915F914F913B
:100600003F912F910F900BBE0F900FBE0F901F9038
:1006100018951F920F920FB60F9211240BB60F92DE
:100620002F933F934F935F936F937F938F939F93FA
:10063000AF93BF93EF93FF9381E792E00E94D600C0
:10064000FF91EF91BF91AF919F918F917F916F91AA
:100650005F914F913F912F910F900BBE0F900FBE66
:100660000F901F901895A0E4B2E0ED91FC911197C6
:10067000908116968C91892B8083089510921A038D
:1006800010921903109218030E9433030E941F0155
:100690000C943601A0E4B2E0ED91FC9111979081A9
:1006A00016968C91809589238083089583E692E045
:1006B0000E94FA008DE992E00E94FA0081E992E03E
:1006C0000E94DD0090931C0380931B03BC01769570
:1006D0006795880F991F680F791F89E792E00E943C
:1006E000E50089E792E00E94A70080911803882323
:1006F00019F10E944A018091190390911A038C35D7
:100700009140D1F460911B0370911C0389E892E041
:100710000E94E50089E892E00E94A70060911B0317
:1007200070911C03660F771F81E892E00E94E5003C
:1007300081E892E00E94A7000C944A03CF93DF93D4
:10074000EC010E94D50460E170E0CE010E94DE045D
:1007500068E0CE010E94EA0460E0CE010E940E052E
:1007600061E0CE010E942205CE010E94710588231E
:10077000D9F361EE72E08BE293E00E94F106EBE2C6
:10078000F3E001900020E9F73197AF014B5253405D
:100790006BE273E0CE01DF91CF910C942F0580EADC
:1007A00092E00E94ED0086E692E00E94ED0080E675
:1007B00092E00E94070166E573E081E992E00E9401
:1007C000D2006DE771E089E892E00E94D2006EE607
:1007D00071E081E892E00E94D20062E471E089E772
:1007E00092E00E94D2006EE373E081E792E00E9403
:1007F000D20081E992E00E94A70081E792E00E9486
:10080000A7008DEC92E00E9471058823D1F36EEE73
:1008100072E08BE293E00E94F106EBE2F3E00190DC
:100820000020E9F73197AF014B5253406BE273E080
:100830008DEC92E00C942F05E0915C02F0915D024A
:10084000908180915E02892B8083E0915802F09123
:100850005902908180915E02809589238083E09186
:100860005402F0915502908180915602892B808329
:10087000E0915002F0915102908180915602809552
:1008800089238083E0914C02F0914D029081809108
:100890004E02892B8083E0914802F09149029081B9
:1008A00080914E02809589238083E0914402F091EB
:1008B0004502908180914602892B8083E09140021D
:1008C000F091410290818091460280958923808336
:1008D000E0913C02F0913D02908180913E02809532
:1008E00089238083E0913802F091390290818091D0
:1008F0003E02892B80838DEC92E00E947105882353
:10090000D1F36CEF72E08BE293E00E94F106EBE230
:10091000F3E001900020E9F73197AF014B525340CB
:100920006BE273E08DEC92E00C942F056AE272E0CA
:100930008DE193E00E94C1056CE172E08DE193E0EE
:100940000E94C1056EE072E08DE193E00E94C10556
:1009500060E072E08DE193E00E94C1058DEC92E0D1
:100960000E9471058823D1F369E073E08BE293E084
:100970000E94F106EBE2F3E001900020E9F73197E5
:10098000AF014B5253406BE273E08DEC92E00C945C
:100990002F0578948DEC92E00E949E030E94CF0375
:1009A0000E941C040E949604FFCFDC011496ED9176
:1009B000FC9115978081886080830895DC011896EA
:1009C000ED91FC91199770831A96ED91FC911B970C
:1009D00060830895FC016623D1F0653059F4A48149
:1009E000B5818C918D7F8C930680F781E02D80817D
:1009F0008D7F12C0663059F0673049F0683039F0A9
:100A0000693059F4A481B5818C9182608C93068001
:100A1000F781E02D8081826080830895FC01662348
:100A200051F0623011F0633061F40680F781E02DFF
:100A30008081806105C00680F781E02D80818F7EF6
:100A400080830895DC011696ED91FC9117978081C3
:100A5000623011F4886001C0877F80830895FC01B3
:100A6000A481B5818C9185FDFDCF1786758764873C
:100A700046878C9180628C930895CF93DF93FC011D
:100A800087859685891760F4C081D181A485B58555
:100A9000A80FB11D8C91888387858F5F878706C0DB
:100AA0000480F581E02D80818F7D8083DF91CF915F
:100AB0000895FC0183899289891760F4A081B1812E
:100AC0009C91A089B189A80FB11D9C9383898F5FE8
:100AD000838B08950480F581E02D80818F7780835A
:100AE0000895FC0181E027859685291380E008950B
:100AF000FB01DC011A962D913C911B9733872287CD
:100B0000958784871B967C936E931A97A285B385ED
:100B1000109721F01D967C936E931C970895FB010E
:100B2000DC011C962D913C911D9735872487938776
:100B300082871D967C936E931C97A485B58510972C
:100B400021F01B967C936E931A970895CF93DF93B1
:100B5000DC011A96ED91FC911B97309731F01C96B1
:100B60002D913C911D9735872487EC01AC85BD857F
:100B7000109721F01B96FC93EE931A97DF91CF917B
:100B80000895DB0112962D913C911397FC0142814F
:100B9000538124173507B0F4DC011C96ED91FC91CC
:100BA0001D97309711F40C948F05428153812417BF
:100BB0003507C8F7CF01F0CF428153814217530761
:100BC00040F4CF01DC011A96ED91FC911B97309710
:100BD00099F70C947805CF93DF93EC01EC85FD85B4
:100BE000309701F1228133818A819B81821793079B
:100BF000C8F4CE010E94A605EC85FD85309731F43E
:100C0000BC01CE01DF91CF910C948F0542815381BD
:100C1000DC0112962D913C9113972417350780F72C
:100C2000EF01EACFEA85FB85309701F1228133811C
:100C30008A819B8128173907C8F4CE010E94A60536
:100C4000EA85FB85309731F4BC01CE01DF91CF916D
:100C50000C94780542815381DC0112962D913C91D0
:100C600013974217530780F7EF01EACFDF91CF9137
:100C70000895CF93DF93EC012296CE010E94D60017
:100C800060E070E0CE010E94D200CE01DF91CF91F2
:100C90000C94C1000F931F93CF93DF938A01FC0143
:100CA000208131812115310581F4EC012296CE019C
:100CB0000E94D200B801CE010E94E500CE01DF9172
:100CC000CF911F910F910C94A700FC014281538199
:100CD000452B59F3C901E3CFFC0120813181828189
:100CE00093818217930781F033832283C90166E0E1
:100CF00070E00E94DD0691878087281B390B3783BF
:100D00002683CF010C94EB0508958F929F92AF92AA
:100D1000BF92CF92DF92EF92FF920F931F93CF93E8
:100D2000DF93EC016B015A01C9010E94FA0086E0D1
:100D3000882E912CA881B981109781F116968D91FA
:100D40009C9117978E159F0559F51496ED91FC917E
:100D500015973097C1F018962D913C911997211550
:100D6000310511F419950FC0029FC001039F900D2A
:100D7000129F900D1124B4010E94DD06AB01BF014A
:100D8000C5010E944A06888199810E946C06E8810B
:100D9000F9818285938599838883CCCFD982C88253
:100DA000DF91CF911F910F91FF90EF90DF90CF9047
:100DB000BF90AF909F908F900895AA1BBB1B51E1ED
:100DC00007C0AA1FBB1FA617B70710F0A61BB70BBB
:100DD000881F991F5A95A9F780959095BC01CD0160
:100DE0000895FB01DC0101900D920020E1F70895C8
:040DF000F894FFCFA5
:100DF4002601260136012601000000000000B4008F
:100E0400B4002B01B4000000000000007200720066
:100E140014017200000000000000000000001F0127
:100E240000000000000000000B0109010A0102009B
:100E34002500230024008000250023002400400016
:100E44002500230024002000250023002400100096
:100E54006902406902006902022001210122012481
:100E64000100000100990200000000080099022C12
:100E7400010000040099022A0100000200990228DE
:100E84000100002000990226013A007300A3020029
:100E9400A30202A000A100A200A400B50200000267
:100EA40000C902A800BF0200000400C902AA000091
:100EB4000000000800C902AC0039007200C600C07E
:100EC40000C100C200C500C4000000000000000012
:100ED400005561727420696E697465640A0054690E
:100EE4006D657220696E697465640A00506F72746E
:100EF40020696E697465640A00416374696F6E20C9
:080F0400696E697465640A005E
:00000001FF
