:100000000C9484000C94A5000C94A5000C94A500FD
:100010000C94A5000C94A5000C94A5000C94A500CC
:100020000C94A5000C94A5000C94A5000C94A500BC
:100030000C94A5000C94A5000C94A5000C94A500AC
:100040000C94A5000C94A5000C94A5000C94A5009C
:100050000C94A5000C94A5000C94A5000C94A5008C
:100060000C94A5000C94A5000C94A5000C94A5007C
:100070000C94A5000C94A5000C94A5000C94A5006C
:100080000C94A5000C94A5000C94A5000C94A5005C
:100090000C94A5000C94A5000C94A5000C94A5004C
:1000A0000C94A5000C94A5000C941A020C944F0219
:1000B0000C9484020C94A5000C94B9020C94E502F3
:1000C0000C9415030C9445030C9475030C94A50033
:1000D0000C94A5000C94A5000C94A5000C94A5000C
:1000E0000C94A5000C9480010C94E0000C94C900C1
:1000F0000C94D4000C94E9000C94B2000C948F0181
:100100000C94BD000C94B10111241FBECFEFD1E2BD
:10011000DEBFCDBF00E00CBF12E0A0E0B2E0EEEB2E
:10012000FAE000E00BBF02C007900D92A83CB107B7
:10013000D9F712E0A8ECB2E001C01D92A03DB107D2
:10014000E1F70E940A040C945D050C940000A7EAF4
:10015000B2E0ED91FC911197908116968C91892BCC
:1001600080830895A7EBB2E0ED91FC911197908107
:1001700016968C91892B80830895A7EBB2E0ED91C0
:10018000FC911197908116968C918095892380839C
:100190000895AFEBB2E0ED91FC9111979081169626
:1001A0008C91892B80830895AFEBB2E0ED91FC91A7
:1001B0001197908116968C9180958923808308955C
:1001C0001092CA021092C90281E08093C8020C9476
:1001D000A7001092CA021092C9021092C8020C9491
:1001E000A700FC018381811115C0A481B5810D9008
:1001F000BC91A02D9C918281892B8C93A481B58187
:1002000012960D90BC91A02D9C918281892B8C938C
:1002100081E083830895FC018381882361F0A481B8
:10022000B58112960D90BC91A02D9C9182818095F4
:1002300089238C9313820895009711F0FC0119947F
:100240000895E091CE02F091CF0224813581809112
:10025000C9029091CA022817390709F047C02681C0
:1002600037810084F185E02D2115310511F41995B0
:100270001EC04091CB025091CC02249FC001259F0B
:10028000900D349F900D112466E070E00E943505BA
:10029000A0919902B0919A0211967C936E93F0937B
:1002A0009402E093930283E992E00E94F100E091CE
:1002B000CE02F091CF022081318182819381821719
:1002C000930761F0C90166E070E00E9435059783ED
:1002D0008683A901481B590B5583448333832283AA
:1002E000828593859093CF028093CE028091C9023C
:1002F0009091CA0206969093CA028093C90208950B
:10030000E5E7F2E0A081B18116960D90BC91A02D99
:10031000828190E011969C938E930C942101EBE3E3
:10032000F2E0A081B18116960D90BC91A02D828142
:1003300090E011969C938E93E5E7F2E0A081B18165
:1003400016960D90BC91A02D828190E011969C9301
:100350008E930E9421011092CA021092C9020C943D
:10036000A700E0913B02F0913C020680F781E02D6E
:1003700080913D0290E091838083E0917502F0913D
:1003800076020680F781E02D8091770290E09183DC
:100390008083E0916F02F09170028081918190934F
:1003A000CC028093CB029C0136952795880F991F2C
:1003B000820F931FE0915702F0915802918380833E
:1003C00081E592E00E94F1008091C802882339F112
:1003D0000E9421018091C9029091CA028C359140FE
:1003E000F1F48091CB029091CC02E0916702F09100
:1003F00068029183808381E692E00E94F1008091FF
:10040000CB029091CC02880F991FE0915F02F0918E
:1004100060029183808389E592E00E94F100E0917F
:10042000A702F091A80290818091AD028095892366
:10043000808308951F920F920FB60F9211240BB66E
:100440000F922F933F934F935F936F937F938F936D
:100450009F93AF93BF93CF93DF93EF93FF93C3E942
:10046000D2E0888199810E941C0119821882CE01F4
:100470000E940B01FF91EF91DF91CF91BF91AF915E
:100480009F918F917F916F915F914F913F912F91AC
:100490000F900BBE0F900FBE0F901F9018951F92DC
:1004A0000F920FB60F9211240BB60F922F933F931A
:1004B0004F935F936F937F938F939F93AF93BF936C
:1004C000CF93DF93EF93FF93CBE8D2E088819981BC
:1004D0000E941C0119821882CE010E940B01FF911B
:1004E000EF91DF91CF91BF91AF919F918F917F91CC
:1004F0006F915F914F913F912F910F900BBE0F9095
:100500000FBE0F901F9018951F920F920FB60F926B
:1005100011240BB60F922F933F934F935F936F93DA
:100520007F938F939F93AF93BF93CF93DF93EF937B
:10053000FF93C3E8D2E0888199810E941C0119824F
:100540001882CE010E940B01FF91EF91DF91CF91B4
:10055000BF91AF919F918F917F916F915F914F91DB
:100560003F912F910F900BBE0F900FBE0F901F90D9
:1005700018951F920F920FB60F9211240BB60F927F
:100580002F933F934F935F936F937F938F939F939B
:10059000AF93BF93EF93FF938091690290916A02AA
:1005A0000E941C01FF91EF91BF91AF919F918F919C
:1005B0007F916F915F914F913F912F910F900BBE63
:1005C0000F900FBE0F901F9018951F920F920FB6AD
:1005D0000F9211240BB60F922F933F934F935F937B
:1005E0006F937F938F939F93AF93BF93EF93FF93FB
:1005F00080916102909162020E941C0181E692E06A
:100600000E940B01FF91EF91BF91AF919F918F914C
:100610007F916F915F914F913F912F910F900BBE02
:100620000F900FBE0F901F9018951F920F920FB64C
:100630000F9211240BB60F922F933F934F935F931A
:100640006F937F938F939F93AF93BF93EF93FF939A
:100650008091590290915A020E941C0189E592E012
:100660000E940B01FF91EF91BF91AF919F918F91EC
:100670007F916F915F914F913F912F910F900BBEA2
:100680000F900FBE0F901F9018951F920F920FB6EC
:100690000F9211240BB60F922F933F934F935F93BA
:1006A0006F937F938F939F93AF93BF93EF93FF933A
:1006B00080915102909152020E941C0181E592E0CA
:1006C0000E940B01FF91EF91BF91AF919F918F918C
:1006D0007F916F915F914F913F912F910F900BBE42
:1006E0000F900FBE0F901F9018951F920F920FB68C
:1006F0000F9211240BB60F922F933F934F935F935A
:100700006F937F938F939F93AF93BF93EF93FF93D9
:100710008091490290914A020E941C01FF91EF9141
:10072000BF91AF919F918F917F916F915F914F9109
:100730003F912F910F900BBE0F900FBE0F901F9007
:100740001895EF92FF920F931F93FB01E81BF90B93
:10075000E09FB001E19F700DF09F700D1124672F95
:100760007727860F971FB901641B750B609F900157
:10077000619F300D709F300D1124232F3327420FBE
:10078000531F481B590B4E9D90014F9D300D5E9D90
:10079000300D1124232F3327820F931F1F910F91A8
:1007A000FF90EF900895EF92FF920F931F93CF93D6
:1007B000DF93C72FDD27E52FFF2731969F01220FFB
:1007C000331FD901AC0FBD1F1196AA0FBB1F2C0FF1
:1007D0003D1F21503109F901EE0FFF1F7A01FF245F
:1007E0008B011127A80FB91F2D913C9111971297DA
:1007F0004D915C91E80FF91F608171813297808182
:1008000091810E94A103DF91CF911F910F91FF90E1
:10081000EF9008957894E091C302F091C402908122
:100820008091C502892B8083E091BF02F091C002C4
:1008300090818091C502809589238083E091BB02DD
:10084000F091BC0290818091BD02892B8083E09160
:10085000B702F091B80290818091BD028095892302
:100860008083E091B302F091B40290818091B5024F
:10087000892B8083E091AF02F091B002908180914A
:10088000B502809589238083E091AB02F091AC02A0
:1008900090818091AD02892B8083E091A702F09135
:1008A000A80290818091AD028095892380838CE29B
:1008B00092E09093CF028093CE0220E232E0309318
:1008C00037022093360224E132E030932B0220934A
:1008D0002A0228E032E030931F0220931E029093F8
:1008E000130280931202E091A302F091A40290817E
:1008F0008091A502809589238083E0919F02F091E9
:10090000A00290818091A502892B8083E0913E0214
:10091000F0913F020280F381E02D908180914002AE
:10092000892B8083E0917802F09179020280F38133
:10093000E02D908180917A02892B8083E0913802AA
:10094000F09139020280F381E02D908180913A028A
:10095000892B808381EB91E090936A0280936902F6
:1009600080E891E090936202809361028FE891E0C9
:1009700090935A028093590280EE90E09093520235
:100980008093510289EE90E090934A02809349024D
:1009900089E692E00E94F10089E492E00E94F10071
:1009A000C8E6D1E00AED11E08091CD028A3348F427
:1009B000E091AF02F091B00290818091B502892B55
:1009C00080838FEC97E00197F1F700C00000E09181
:1009D000AF02F091B00290818091B5028095892399
:1009E00080838FEC97E00197F1F700C000008091C1
:1009F000CD028B3320F48F5F8093CD02D5CF41E0C1
:100A000050E060E870E080E092E00E94D3039C0137
:100A1000CE01821B930BBE010E944905FC019093FD
:100A20002D0280932C02C801821B930BBE010E94F1
:100A300049059C019093210280932002CF018C54A0
:100A40009F4FBE010E9435059093150280931402BA
:100A5000C9018C549F4FBE010E9435059093090235
:100A6000809308021092CD029FCFAA1BBB1B51E1BD
:100A700007C0AA1FBB1FA617B70710F0A61BB70B0E
:100A8000881F991F5A95A9F780959095BC01CD01B3
:100A9000089597FB072E16F4009407D077FD09D030
:100AA0000E94350507FC05D03EF4909581959F4F37
:0E0AB0000895709561957F4F0895F894FFCFDB
:100ABE0005000A000000050026012601260100009F
:100ACE00D4000000B400B400B4000000C90000005F
:100ADE007200720072000000BD00000000000000F5
:100AEE0000000000B200000041024041020041023D
:100AFE0002200121012201240100000100710200E7
:100B0E00000000080071022C010000040071022A8E
:100B1E00010000020071022801000020007102266F
:100B2E00013A0073007B02007B0202A000A100A22A
:100B3E0000A400000008009B02AC00000004009B13
:100B4E0002AA00000002009B02A800390072000BEE
:100B5E000109010A0102002500230024008000255E
:100B6E00002300240040002500230024002000253F
:080B7E00002300240010000018
:00000001FF
