:100000000C9480000C94A1000C94A1000C94A1000D
:100010000C94A1000C94A1000C94A1000C94A100DC
:100020000C94A1000C94A1000C94A1000C94A100CC
:100030000C94A1000C94A1000C94A1000C94A100BC
:100040000C94A1000C94A1000C94A1000C94A100AC
:100050000C94A1000C94A1000C94A1000C94A1009C
:100060000C94A1000C94A1000C94A1000C94A1008C
:100070000C94A1000C94A1000C94A1000C94A1007C
:100080000C94A1000C94A1000C94A1000C94A1006C
:100090000C94A1000C94A1000C94A1000C94A1005C
:1000A0000C94A1000C94A1000C943C010C946A01E6
:1000B0000C9498010C94A1000C94C6010C94F001CE
:1000C0000C941E020C944C020C947A020C94A10025
:1000D0000C94A1000C94A1000C94A1000C94A1001C
:1000E0000C94A1000C941B010C9419030C941B0399
:1000F0000C9410010C94C6020C9427010C94370147
:1001000011241FBECFEFD1E2DEBFCDBF00E00CBF98
:1001100012E0A0E0B2E0E0ECF7E000E00BBF02C0CC
:1001200007900D92AA39B107D9F712E0AAE9B2E017
:1001300001C01D92A13AB107E1F70E941D030C9482
:10014000DE030C940000FC018381811115C0A481A1
:10015000B5810D90BC91A02D9C918281892B8C93AF
:10016000A481B58112960D90BC91A02D9C918281A5
:10017000892B8C9381E083830895FC0183818823FC
:1001800061F0A481B58112960D90BC91A02D9C9137
:100190008281809589238C9313820895FC01718359
:1001A00060830895DC01ED91FC91309709F019947A
:1001B0000895DC011696ED91FC911797808191814D
:1001C0000895DC011696ED91FC9117977183608379
:1001D0000895DC01ED91FC9111970280F381E02DEF
:1001E000908112968C91892B80830895DC01ED918A
:1001F000FC9111970680F781E02D12968C9190E08A
:10020000918380830895DC01ED91FC911197028028
:10021000F381E02D908112968C91892B8083089533
:10022000A1E9B2E0ED91FC911197908116968C9125
:10023000892B80830895A1E9B2E0ED91FC9111979B
:10024000908116968C9180958923808308951092D1
:100250009B0281E080939A02A1E8B2E0ED91FC91CB
:100260001197908116968C91892B80830895109216
:100270009B0210929A0208951F920F920FB60F924E
:1002800011240BB60F922F933F934F935F936F936D
:100290007F938F939F93AF93BF93EF93FF938DE6DD
:1002A00092E00E94D2008DE692E00E94BD00FF9194
:1002B000EF91BF91AF919F918F917F916F915F91DE
:1002C0004F913F912F910F900BBE0F900FBE0F904B
:1002D0001F9018951F920F920FB60F9211240BB614
:1002E0000F922F933F934F935F936F937F938F93CF
:1002F0009F93AF93BF93EF93FF9385E692E00E94A5
:10030000D20085E692E00E94BD00FF91EF91BF917F
:10031000AF919F918F917F916F915F914F913F919D
:100320002F910F900BBE0F900FBE0F901F9018953E
:100330001F920F920FB60F9211240BB60F922F93AC
:100340003F934F935F936F937F938F939F93AF935D
:10035000BF93EF93FF938DE592E00E94D2008DE56D
:1003600092E00E94BD00FF91EF91BF91AF919F91EC
:100370008F917F916F915F914F913F912F910F904E
:100380000BBE0F900FBE0F901F9018951F920F92EB
:100390000FB60F9211240BB60F922F933F934F93EA
:1003A0005F936F937F938F939F93AF93BF93EF93DD
:1003B000FF9383E492E00E94D200FF91EF91BF91FE
:1003C000AF919F918F917F916F915F914F913F91ED
:1003D0002F910F900BBE0F900FBE0F901F9018958E
:1003E0001F920F920FB60F9211240BB60F922F93FC
:1003F0003F934F935F936F937F938F939F93AF93AD
:10040000BF93EF93FF938BE392E00E94D2008BE3C4
:1004100092E00E94BD00FF91EF91BF91AF919F913B
:100420008F917F916F915F914F913F912F910F909D
:100430000BBE0F900FBE0F901F9018951F920F923A
:100440000FB60F9211240BB60F922F933F934F9339
:100450005F936F937F938F939F93AF93BF93EF932C
:10046000FF9383E392E00E94D20083E392E00E9434
:10047000BD00FF91EF91BF91AF919F918F917F91BF
:100480006F915F914F913F912F910F900BBE0F9005
:100490000FBE0F901F9018951F920F920FB60F92DC
:1004A00011240BB60F922F933F934F935F936F934B
:1004B0007F938F939F93AF93BF93EF93FF938BE2C1
:1004C00092E00E94D2008BE292E00E94BD00FF9178
:1004D000EF91BF91AF919F918F917F916F915F91BC
:1004E0004F913F912F910F900BBE0F900FBE0F9029
:1004F0001F9018951F920F920FB60F9211240BB6F2
:100500000F922F933F934F935F936F937F938F93AC
:100510009F93AF93BF93EF93FF9383E292E00E9488
:10052000D200FF91EF91BF91AF919F918F917F91F9
:100530006F915F914F913F912F910F900BBE0F9054
:100540000FBE0F901F901895CF93DF93C0919F021D
:10055000D091A0029C8180919B02981731F08F5F0F
:1005600080939B02DF91CF910895ED81FE813097BA
:1005700019F0199580919B02288139813B832A8348
:100580008F5F80939B02DF91CF91089585E192E088
:100590000E94F6008FE492E00E94F60083E492E06D
:1005A0000E94D90090939D0280939C02BC01769595
:1005B0006795880F991F680F791F8BE292E00E9460
:1005C000E1008BE292E00E94A30080919A028111E7
:1005D0000FC080919B028A3389F0E0918102F091F3
:1005E000820290818091870280958923808308957B
:1005F0000E94A40280919B028A3379F760919C0249
:1006000070919D028BE392E00E94E1008BE392E007
:100610000E94A30060919C0270919D02660F771F5B
:1006200083E392E00E94E10083E392E00E94A30052
:10063000D4CF0C94A4020C94A402789489E092E0A4
:100640009093A00280939F0220E032E03093110249
:10065000209310029093080280930702E091950284
:10066000F0919602908180919702892B8083E0918E
:100670009102F09192028081909197029095892346
:100680008083E0918D02F0918E02908180918F02A3
:10069000892B8083E0918902F0918A028081909178
:1006A0008F02909589238083E0918502F0918602E4
:1006B000908180918702892B8083E0918102F09163
:1006C0008202808190918702909589238083E091B6
:1006D0007D02F0917E02808190917F029095892326
:1006E0008083E0917902F0917A02908180917F027B
:1006F000892B808388E192E00E94E90082E592E004
:100700000E94E90082E192E00E94030166EC72E03F
:1007100083E492E00E94CE0069E173E08BE392E013
:100720000E94CE006BE173E083E392E00E94CE0072
:1007300067E271E08BE292E00E94CE0067E371E035
:1007400083E292E00E94CE0083E492E00E94A30044
:1007500083E292E00E94A30080919E028A3348F4D3
:10076000E0918902F0918A02908180918F02892B19
:1007700080838FE891E00197F1F700C00000E091DD
:100780008902F0918A02908180918F02809589235D
:1007900080838FE891E00197F1F700C0000080911D
:1007A0009E028B3340F48F5F80939E0280919E0265
:1007B0008A33F8F6D5CF10929E02CECFF894FFCFB1
:1007C00000000000141B01000000000000021001E6
:1007D00000001B02401B02001B020220012101221B
:1007E000012401000001004B020000000008004B42
:1007F000022C01000004004B022A01000002004B01
:10080000022801000020004B0226013A0073005527
:100810000200550202A000A100A200A400000008EE
:10082000007502AC00000004007502AA000000027E
:10083000007502A800390072000B0109010A0102CB
:100840000025002300240080002500230024004010
:0A0850000025002300240020000012
:00000001FF
