:100000000C9484000C94A5000C94A5000C94A500FD
:100010000C94A5000C94A5000C94A5000C94A500CC
:100020000C94A5000C94A5000C94A5000C94A500BC
:100030000C94A5000C94A5000C94A5000C94A500AC
:100040000C94A5000C94A5000C94A5000C94A5009C
:100050000C94A5000C94A5000C94A5000C94A5008C
:100060000C94A5000C94A5000C94A5000C94A5007C
:100070000C94A5000C94A5000C94A5000C94A5006C
:100080000C94A5000C94A5000C94A5000C94A5005C
:100090000C94A5000C94A5000C94A5000C94A5004C
:1000A0000C94A5000C94A5000C9453020C948C02A3
:1000B0000C94C5020C94A5000C94FE020C942B0326
:1000C0000C9460030C9495030C94CA030C94A50043
:1000D0000C94A5000C94A5000C94A5000C94A5000C
:1000E0000C94A5000C94D5010C9491010C94E7009C
:1000F0000C94C9000C94D5000C94BC010C94A7007E
:100100000C94B2000C94BE0011241FBECFEFD1E2BC
:10011000DEBFCDBF00E00CBF12E0A0E0B2E0E2EC39
:10012000FCE000E00BBF02C007900D92A03CB107BD
:10013000D9F719E0A0ECB2E001C01D92A830B107D8
:10014000E1F70E9468040C945F060C940000AFEA8B
:10015000B2E0ED91FC911197908116968C91892BCC
:1001600080830895AFEAB2E0ED91FC911197908100
:1001700016968C918095892380830895A7EBB2E031
:10018000ED91FC911197908116968C91892B80832B
:100190000895A7EBB2E0ED91FC911197908116962E
:1001A0008C9180958923808308951092C2021092C9
:1001B000C10281E08093C002AFE9B2E0ED91FC9111
:1001C0001197908116968C91892B808308951092B7
:1001D000C2021092C1021092C002AFE9B2E0ED91EA
:1001E000FC911197908116968C91892B80830895AC
:1001F000FC01A481B5810D90BC91A02D9C918281C0
:10020000892B8C93A481B58112960D90BC91A02D61
:100210009C918281892B8C9381E083830895FC01DA
:10022000A481B58112960D90BC91A02D9C918281E4
:10023000809589238C9313820895E0910609F091AB
:100240000709248135818091C1029091C20228174B
:10025000390709F0089586819781009709F458C0FD
:100260004091C3025091C402849F9001859F300D3C
:10027000949F300D1124ABEABAEA0E94E7059695E7
:10028000879596958795A0919102B09192021196CB
:100290009C938E938085918590938C0280938B02A2
:1002A00080918E02882359F140815181828193810E
:1002B00084179507D9F09A01ABEABAEA0E94E705DC
:1002C00096958795969587959C01220F331F820FEF
:1002D000931F880F991F9A01281B390BC901378377
:1002E00026839A01281B390B358324835383428349
:1002F00082859385909307098093060908958BE87A
:1003000092E00E94F800E0910609F0910709CCCF35
:100310000084F185E02D1995E0910609F091070917
:10032000C3CFE3E3F2E0A081B18116960D90BC91BA
:10033000A02D828190E011969C938E93EDE6F2E0E1
:10034000A081B18116960D90BC91A02D828190E084
:1003500011969C938E930E941D011092C2021092DE
:10036000C102AFE9B2E0ED91FC9111979081169630
:100370008C91892B80830895EDE6F2E0A081B18114
:1003800016960D90BC91A02D828190E011969C93C1
:100390008E930E941D018091C1029091C202069627
:1003A0009093C2028093C1020895E0913302F091CC
:1003B00034020680F781E02D8091350290E0918330
:1003C0008083E0916D02F0916E020680F781E02D4E
:1003D00080916F0290E091838083E0916702F091B9
:1003E0006802808191819093C4028093C3029C0132
:1003F00036952795880F991F820F931FE0914F0222
:10040000F09150029183808380914C02882309F4FB
:1004100040C08091C00281110BC0E0919F02F09119
:10042000A00290818091A502809589238083089500
:100430000E941D018091C1029091C2020696909384
:10044000C2028093C1028C35914039F78091C3027A
:100450009091C402E0915F02F091600291838083E9
:1004600080915C028823D1F08091C3029091C402F4
:10047000880F991FE0915702F09158029183808371
:10048000809154028111C9CF81E592E00E94F80069
:10049000C4CF89E492E00E94F800BBCF89E592E0E6
:1004A0000E94F800E1CF1F920F920FB60F92112415
:1004B0000BB60F922F933F934F935F936F937F935E
:1004C0008F939F93AF93BF93EF93FF93E0918B0232
:1004D000F0918C02309709F0199510928C021092CD
:1004E0008B0280918E02882321F08BE892E00E949B
:1004F0000F01FF91EF91BF91AF919F918F917F91EC
:100500006F915F914F913F912F910F900BBE0F9084
:100510000FBE0F901F9018951F920F920FB60F925B
:1005200011240BB60F922F933F934F935F936F93CA
:100530007F938F939F93AF93BF93EF93FF93E0913C
:100540008302F0918402309709F019951092840289
:100550001092830280918602882321F083E892E042
:100560000E940F01FF91EF91BF91AF919F918F91E9
:100570007F916F915F914F913F912F910F900BBEA3
:100580000F900FBE0F901F9018951F920F920FB6ED
:100590000F9211240BB60F922F933F934F935F93BB
:1005A0006F937F938F939F93AF93BF93EF93FF933B
:1005B000E0917B02F0917C02309709F0199510923E
:1005C0007C0210927B0280917E02882321F08BE7CF
:1005D00092E00E940F01FF91EF91BF91AF919F9127
:1005E0008F917F916F915F914F913F912F910F90DC
:1005F0000BBE0F900FBE0F901F9018951F920F9279
:100600000FB60F9211240BB60F922F933F934F9377
:100610005F936F937F938F939F93AF93BF93EF936A
:10062000FF93E0916102F0916202309709F0199511
:10063000FF91EF91BF91AF919F918F917F916F91BA
:100640005F914F913F912F910F900BBE0F900FBE76
:100650000F901F9018951F920F920FB60F921124B2
:100660000BB60F922F933F934F935F936F937F93AC
:100670008F939F93AF93BF93EF93FF93E0915902B2
:10068000F0915A02309709F0199580915C02882305
:1006900021F089E592E00E940F01FF91EF91BF9157
:1006A000AF919F918F917F916F915F914F913F910A
:1006B0002F910F900BBE0F900FBE0F901F901895AB
:1006C0001F920F920FB60F9211240BB60F922F9319
:1006D0003F934F935F936F937F938F939F93AF93CA
:1006E000BF93EF93FF93E0915102F0915202309744
:1006F00009F0199580915402882321F081E592E058
:100700000E940F01FF91EF91BF91AF919F918F9147
:100710007F916F915F914F913F912F910F900BBE01
:100720000F900FBE0F901F9018951F920F920FB64B
:100730000F9211240BB60F922F933F934F935F9319
:100740006F937F938F939F93AF93BF93EF93FF9399
:10075000E0914902F0914A02309709F01995809191
:100760004C02882321F089E492E00E940F01FF915E
:10077000EF91BF91AF919F918F917F916F915F9119
:100780004F913F912F910F900BBE0F900FBE0F9086
:100790001F9018951F920F920FB60F9211240BB64F
:1007A0000F922F933F934F935F936F937F938F930A
:1007B0009F93AF93BF93EF93FF93E0914102F0912A
:1007C0004202309709F01995FF91EF91BF91AF91D7
:1007D0009F918F917F916F915F914F913F912F9159
:1007E0000F900BBE0F900FBE0F901F901895CF92D9
:1007F000DF92EF92FF920F931F93CF93DF93EC0161
:10080000DD27892F99276C012FEFC21AD20A472FB3
:1008100050E0DA01119638E2389F8001399F100DBF
:100820001124C8018A0F9B1F8A539D4FFC01208110
:10083000F801E40FF51FEA53FD4FE0803C9D800175
:100840003D9D100D1124400F511FFA01EA53FD4F39
:10085000E081FF27E7FDF095FF24E7FCF094EE1917
:10086000FF09EC9FA001ED9F500DFC9F500D11243E
:10087000452F55274E0D5F1DA00FB11FAA53BD4F29
:100880008C91992787FD9095332727FD3095821B02
:10089000930B8C9FF0018D9FF00D9C9FF00D112408
:1008A0008F2F9927280F391F241B350B629FC001FA
:1008B000639F900D1124892F9927840F951FDF9135
:1008C000CF911F910F91FF90EF90DF90CF900895FF
:1008D0007894E091BB02F091BC0290818091BD02BE
:1008E000892B8083E091B702F091B80280819091CA
:1008F000BD02909589238083E091B302F091B40208
:1009000090818091B502892B8083E091AF02F091B4
:10091000B00280819091B502909589238083E09107
:10092000AB02F091AC0290818091AD02892B808363
:10093000E091A702F091A80280819091AD0290957C
:1009400089238083E091A302F091A4029081809199
:10095000A502892B8083E0919F02F091A002808103
:100960009091A50290958923808384E292E09093F0
:1009700007098093060928E132E030932F02209383
:100980002E022CE032E0309323022093220220E05A
:1009900032E0309317022093160290930B0280935B
:1009A0000A02E0919B02F0919C02808190919D024D
:1009B000909589238083E0919702F091980290812D
:1009C00080919D02892B8083E0913602F09137025D
:1009D0000280F381E02D908180913802892B808301
:1009E000E0917002F09171020280F381E02D90811C
:1009F00080917202892B8083E0913002F091310264
:100A00000280F381E02D908180913202892B8083D6
:100A100085ED91E090936202809361028CEB91E00E
:100A200090935A028093590281E991E09093520287
:100A30008093510285ED90E090934A0280934902A1
:100A400087EE90E09093420280934102809164028D
:100A5000882309F4B7C080914402882309F4ADC00B
:100A600087E238E29FEF980F399FF0011124EA5393
:100A7000FD4F90832EEF280F218384508283892F8E
:100A80009111F0CF40E8C42E44E8D42E4EE1E42E7C
:100A9000F12CC8E6D1E00AED11E08091C5028A335D
:100AA00048F4E091A702F091A80290818091AD02F4
:100AB000892B80838FEC97E00197F1F700C000004D
:100AC000E091A702F091A80290818091AD028095FB
:100AD000892380838FEC97E00197F1F700C0000035
:100AE0008091C5028B3340F48F5F8093C502809163
:100AF000C5028A33F8F6D5CF2091C3023091C402E3
:100B000040E050E0C701B6010E940A0660E070E0D4
:100B1000C9010E94F7039C01CE01821B930BBE0109
:100B20000E94F605FC019093250280932402C801DF
:100B3000821B930BBE010E94F605AC019093190233
:100B400080931802EC54FF4F9F01A3E8BDE20E947E
:100B5000E7050024880F991F001C880F991F001CAF
:100B6000892F902D8C9F90018D9F300D9C9F300D73
:100B70001124E21BF30BF0930D02E0930C024C5492
:100B80005F4F9A010E94E7050024880F991F001CFF
:100B9000880F991F001C892F902D8C9F90018D9F8D
:100BA000300D9C9F300D1124421B530B50930102BA
:100BB000409300021092C50270CF81E492E00E943F
:100BC000F8004ECF81E692E00E94F80044CFA29F49
:100BD000B001B39FC001A39F700D811D1124911D11
:100BE000B29F700D811D1124911D089597FB072E52
:100BF00016F4009407D077FD09D00E94290607FC5F
:100C000005D03EF4909581959F4F0895709561951C
:100C10007F4F0895052E97FB1EF400940E94210635
:100C200057FD07D00E943D0607FC03D04EF40C94FC
:100C3000210650954095309521953F4F4F4F5F4F7E
:100C4000089590958095709561957F4F8F4F9F4F38
:100C50000895AA1BBB1B51E107C0AA1FBB1FA61703
:100C6000B70710F0A61BB70B881F991F5A95A9F755
:100C700080959095BC01CD010895A1E21A2EAA1B82
:100C8000BB1BFD010DC0AA1FBB1FEE1FFF1FA2173C
:100C9000B307E407F50720F0A21BB30BE40BF50B39
:100CA000661F771F881F991F1A9469F760957095C2
:100CB000809590959B01AC01BD01CF010895F894FA
:020CC000FFCF64
:100CC2002601260126010000C9000000B400B4007C
:100CD200B4000000BE00000072007200720000004A
:100CE200B20000000000000000000000A7000000A9
:100CF2003902403902003902022001210122012475
:100D02000100000100690200000000080069022CD5
:100D1200010000040069022A0100000200690228A1
:100D22000100002000690226013A007300730200EC
:100D3200730202A000A100A200A400000008009318
:100D420002AC00000004009302AA0000000200931B
:100D520002A800390072000B0109010A01020025F4
:100D620000230024008000250023002400400025E9
:100D7200002300240020002500230024001000008E
:00000001FF
