:100000000C9484000C94A5000C94A5000C94A500FD
:100010000C94A5000C94A5000C94A5000C94A500CC
:100020000C94A5000C94A5000C94A5000C94A500BC
:100030000C94A5000C94A5000C94A5000C94A500AC
:100040000C94A5000C94A5000C94A5000C94A5009C
:100050000C94A5000C94A5000C94A5000C94A5008C
:100060000C94A5000C94A5000C94A5000C94A5007C
:100070000C94A5000C94A5000C94A5000C94A5006C
:100080000C94A5000C94A5000C94A5000C94A5005C
:100090000C94A5000C94A5000C94A5000C94A5004C
:1000A0000C94A5000C94A5000C941A020C944F0219
:1000B0000C9484020C94A5000C94B9020C94E502F3
:1000C0000C9415030C9445030C9475030C94A50033
:1000D0000C94A5000C94A5000C94A5000C94A5000C
:1000E0000C94A5000C9480010C94E0000C94C900C1
:1000F0000C94D4000C94E9000C94B2000C948F0181
:100100000C94BD000C94B10111241FBECFEFD1E2BD
:10011000DEBFCDBF00E00CBF15E0A0E0B2E0EEE531
:10012000FBE000E00BBF02C007900D92A03EB107BC
:10013000D9F715E0A0EEB5E001C01D92AA3EB107C7
:10014000E1F70E9405040C94AD050C940000AFEBA0
:10015000B5E0ED91FC911197908116968C91892BC9
:1001600080830895AFECB5E0ED91FC9111979081FB
:1001700016968C91892B80830895AFECB5E0ED91B4
:10018000FC911197908116968C918095892380839C
:100190000895A7EDB5E0ED91FC9111979081169629
:1001A0008C91892B80830895A7EDB5E0ED91FC91AA
:1001B0001197908116968C9180958923808308955C
:1001C0001092E4051092E30581E08093E2050C941F
:1001D000A7001092E4051092E3051092E2050C943A
:1001E000A700FC018381811115C0A481B5810D9008
:1001F000BC91A02D9C918281892B8C93A481B58187
:1002000012960D90BC91A02D9C918281892B8C938C
:1002100081E083830895FC018381882361F0A481B8
:10022000B58112960D90BC91A02D9C9182818095F4
:1002300089238C9313820895009711F0FC0119947F
:100240000895E091E805F091E905248135818091D8
:10025000E3059091E4052817390709F047C0268186
:1002600037810084F185E02D2115310511F41995B0
:100270001EC04091E5055091E605249FC001259FD1
:10028000900D349F900D112466E070E00E944405AB
:10029000A091B105B091B20511967C936E93F09345
:1002A000AC05E093AB058BEA95E00E94F100E0918C
:1002B000E805F091E90520813181828193818217DF
:1002C000930761F0C90166E070E00E9444059783DE
:1002D0008683A901481B590B5583448333832283AA
:1002E000828593859093E9058093E8058091E305E5
:1002F0009091E40506969093E4058093E3050895B4
:10030000EDE8F5E0A081B18116960D90BC91A02D8D
:10031000828190E011969C938E930C942101E3E5E9
:10032000F5E0A081B18116960D90BC91A02D82813F
:1003300090E011969C938E93EDE8F5E0A081B18159
:1003400016960D90BC91A02D828190E011969C9301
:100350008E930E9421011092E4051092E3050C9403
:10036000A700E0915305F09154050680F781E02D38
:100370008091550590E091838083E0918D05F09107
:100380008E050680F781E02D80918F0590E09183A6
:100390008083E0918705F091880580819181909319
:1003A000E6058093E5059C0136952795880F991FF2
:1003B000820F931FE0916F05F09170059183808308
:1003C00089E695E00E94F1008091E205882339F1E9
:1003D0000E9421018091E3059091E4058C359140C4
:1003E000F1F48091E5059091E605E0917F05F091AB
:1003F00080059183808389E795E00E94F1008091D8
:10040000E5059091E605880F991FE0917705F09139
:1004100078059183808381E795E00E94F100E09167
:10042000BF05F091C00590818091C5058095892315
:10043000808308951F920F920FB60F9211240BB66E
:100440000F922F933F934F935F936F937F938F936D
:100450009F93AF93BF93CF93DF93EF93FF93CBEA39
:10046000D5E0888199810E941C0119821882CE01F1
:100470000E940B01FF91EF91DF91CF91BF91AF915E
:100480009F918F917F916F915F914F913F912F91AC
:100490000F900BBE0F900FBE0F901F9018951F92DC
:1004A0000F920FB60F9211240BB60F922F933F931A
:1004B0004F935F936F937F938F939F93AF93BF936C
:1004C000CF93DF93EF93FF93C3EAD5E088819981BF
:1004D0000E941C0119821882CE010E940B01FF911B
:1004E000EF91DF91CF91BF91AF919F918F917F91CC
:1004F0006F915F914F913F912F910F900BBE0F9095
:100500000FBE0F901F9018951F920F920FB60F926B
:1005100011240BB60F922F933F934F935F936F93DA
:100520007F938F939F93AF93BF93CF93DF93EF937B
:10053000FF93CBE9D5E0888199810E941C01198243
:100540001882CE010E940B01FF91EF91DF91CF91B4
:10055000BF91AF919F918F917F916F915F914F91DB
:100560003F912F910F900BBE0F900FBE0F901F90D9
:1005700018951F920F920FB60F9211240BB60F927F
:100580002F933F934F935F936F937F938F939F939B
:10059000AF93BF93EF93FF93809181059091820574
:1005A0000E941C01FF91EF91BF91AF919F918F919C
:1005B0007F916F915F914F913F912F910F900BBE63
:1005C0000F900FBE0F901F9018951F920F920FB6AD
:1005D0000F9211240BB60F922F933F934F935F937B
:1005E0006F937F938F939F93AF93BF93EF93FF93FB
:1005F0008091790590917A050E941C0189E795E028
:100600000E940B01FF91EF91BF91AF919F918F914C
:100610007F916F915F914F913F912F910F900BBE02
:100620000F900FBE0F901F9018951F920F920FB64C
:100630000F9211240BB60F922F933F934F935F931A
:100640006F937F938F939F93AF93BF93EF93FF939A
:1006500080917105909172050E941C0181E795E0DF
:100660000E940B01FF91EF91BF91AF919F918F91EC
:100670007F916F915F914F913F912F910F900BBEA2
:100680000F900FBE0F901F9018951F920F920FB6EC
:100690000F9211240BB60F922F933F934F935F93BA
:1006A0006F937F938F939F93AF93BF93EF93FF933A
:1006B0008091690590916A050E941C0189E695E088
:1006C0000E940B01FF91EF91BF91AF919F918F918C
:1006D0007F916F915F914F913F912F910F900BBE42
:1006E0000F900FBE0F901F9018951F920F920FB68C
:1006F0000F9211240BB60F922F933F934F935F935A
:100700006F937F938F939F93AF93BF93EF93FF93D9
:1007100080916105909162050E941C01FF91EF910B
:10072000BF91AF919F918F917F916F915F914F9109
:100730003F912F910F900BBE0F900FBE0F901F9007
:100740001895EF92FF920F931F93FB01E81BF90B93
:10075000E09FB001E19F700DF09F700D1124672F95
:100760007727860F971FB901641B750B609F900157
:10077000619F300D709F300D1124232F3327420FBE
:10078000531F481B590B4E9D90014F9D300D5E9D90
:10079000300D1124232F3327820F931F1F910F91A8
:1007A000FF90EF900895EF92FF920F931F93E52F24
:1007B000FF273196A0E5AE9F9001AF9F300D112429
:1007C000E72FFF27EE0FFF1FDF01A20FB31FA80FB8
:1007D000B91F205531092E0F3F1FFC01E20FF31FF7
:1007E0007A01FF248B01112712962D913C911397CA
:1007F0004D915C9162817381808191810E94A103FE
:100800001F910F91FF90EF9008957894E091DB0590
:10081000F091DC0590818091DD05892B8083E0914A
:10082000D705F091D80590818091DD0580958923C9
:100830008083E091D305F091D40590818091D50516
:10084000892B8083E091CF05F091D0059081809134
:10085000D505809589238083E091CB05F091CC0567
:1008600090818091CD05892B8083E091C705F0911F
:10087000C80590818091CD05809589238083E09182
:10088000C305F091C40590818091C505892B8083B3
:10089000E091BF05F091C00590818091C5058095DC
:1008A0008923808384E495E09093E9058093E805AB
:1008B00028E335E030934F0520934E052CE235E0D8
:1008C000309343052093420520E235E0309337050D
:1008D0002093360590932B0580932A05E091BB0564
:1008E000F091BC0590818091BD058095892380831E
:1008F000E091B705F091B80590818091BD05892BF5
:100900008083E0915605F09157050280F381E02D38
:10091000908180915805892B8083E0919005F0911A
:1009200091050280F381E02D908180919205892BC1
:100930008083E0915005F09151050280F381E02D14
:10094000908180915205892B808381EB91E0909377
:1009500082058093810580E891E090937A058093E9
:1009600079058FE891E0909372058093710580EE90
:1009700090E090936A058093690589EE90E09093EA
:1009800062058093610581E895E00E94F10081E6AF
:1009900095E00E94F10080E8C82E84E8D82E8EE110
:1009A000E82EF12CC8E6D1E00AED11E08091E705D0
:1009B0008A3348F4E091C705F091C8059081809191
:1009C000CD05892B80838FEC97E00197F1F700C06C
:1009D0000000E091C705F091C80590818091CD0598
:1009E0008095892380838FEC97E00197F1F700C011
:1009F00000008091E7058B3320F48F5F8093E7053B
:100A0000D5CFA090E005B090E1052091E5053091AB
:100A1000E60540E050E0C701B6010E946C05CA013E
:100A2000B901A50180E092E00E94D3039C01CE01B0
:100A3000821B930BBE010E945805FC019093450553
:100A400080934405C801821B930BBE010E94580588
:100A50009C019093390580933805CF018C549F4FAA
:100A6000BE010E94440590932D0580932C05C90179
:100A70008C549F4FBE010E944405909321058093A2
:100A800020051092E70592CFAA1BBB1B51E107C0BE
:100A9000AA1FBB1FA617B70710F0A61BB70B881F0E
:100AA000991F5A95A9F780959095BC01CD0108959D
:100AB00097FB072E16F4009407D077FD09D00E940B
:100AC000440507FC05D03EF4909581959F4F08950D
:100AD000709561957F4F0895052E97FB1EF4009445
:100AE0000E94830557FD07D00E948B0507FC03D0A9
:100AF0004EF40C94830550954095309521953F4FC9
:100B00004F4F5F4F089590958095709561957F4FF9
:100B10008F4F9F4F0895A1E21A2EAA1BBB1BFD0108
:100B20000DC0AA1FBB1FEE1FFF1FA217B307E407CC
:100B3000F50720F0A21BB30BE40BF50B661F771F24
:100B4000881F991F1A9469F7609570958095909504
:0E0B50009B01AC01BD01CF010895F894FFCFC9
:100B5E0005000A000F00140019001E0023002800D3
:100B6E002D003200370000000000000000000000E1
:100B7E000000000000000000000000000000000067
:100B8E000000000000000000000000000000000057
:100B9E000000000000000000000000000000000047
:100BAE00000005000A000F00140019001E002300AB
:100BBE0028002D00320000000000000000000000A0
:100BCE000000000000000000000000000000000017
:100BDE000000000000000000000000000000000007
:100BEE0000000000000000000000000000000000F7
:100BFE00000005000A000F00140019001E0023005B
:100C0E0028002D003200000000000000000000004F
:100C1E0000000000000000000000000000000000C6
:100C2E0000000000000000000000000000000000B6
:100C3E0000000000000000000000000000000000A6
:100C4E000000000000000000000000000000000096
:100E7E002601260126010000D4000000B400B400B3
:100E8E00B4000000C9000000720072007200000081
:100E9E00BD0000000000000000000000B2000000D5
:100EAE00590540590500590502200121012201244E
:100EBE000100000100890500000000080089052CD2
:100ECE00010000040089052A01000002008905289E
:100EDE000100002000890526013A007300930500E9
:100EEE00930502A000A100A200A40000000800B318
:100EFE0005AC0000000400B305AA0000000200B318
:100F0E0005A800390072000B0109010A0102002533
:100F1E00002300240080002500230024004000252B
:100F2E0000230024002000250023002400100000D0
:00000001FF
