:100000000C9484000C94A5000C94A5000C94A500FD
:100010000C94A5000C94A5000C94A5000C94A500CC
:100020000C94A5000C94A5000C94A5000C94A500BC
:100030000C94A5000C94A5000C94A5000C94A500AC
:100040000C94A5000C94A5000C94A5000C94A5009C
:100050000C94A5000C94A5000C94A5000C94A5008C
:100060000C94A5000C94A5000C94A5000C94A5007C
:100070000C94A5000C94A5000C94A5000C94A5006C
:100080000C94A5000C94A5000C94A5000C94A5005C
:100090000C94A5000C94A5000C94A5000C94A5004C
:1000A0000C94A5000C94A5000C941B020C94540213
:1000B0000C948D020C94A5000C94C6020C94F302CF
:1000C0000C9428030C945D030C9492030C94A500EB
:1000D0000C94A5000C94A5000C94A5000C94A5000C
:1000E0000C94A5000C94FF010C9493010C94E50072
:1000F0000C94C9000C94D5000C94FD010C94A7003D
:100100000C94B2000C94BE0011241FBECFEFD1E2BC
:10011000DEBFCDBF00E00CBF12E0A0E0B2E0E2E441
:10012000FAE000E00BBF02C007900D92A03CB107BF
:10013000D9F712E0A0ECB2E001C01D92A73CB107D4
:10014000E1F70E94BF030C941F050C940000AFEA76
:10015000B2E0ED91FC911197908116968C91892BCC
:1001600080830895AFEAB2E0ED91FC911197908100
:1001700016968C918095892380830895A7EBB2E031
:10018000ED91FC911197908116968C91892B80832B
:100190000895A7EBB2E0ED91FC911197908116962E
:1001A0008C9180958923808308951092C10281E00B
:1001B0008093C002AFE9B2E0ED91FC91119790817C
:1001C00016968C91892B808308951092C10210920B
:1001D000C0020895FC01A481B5810D90BC91A02DB1
:1001E0009C918281892B8C93A481B58112960D906C
:1001F000BC91A02D9C918281892B8C9381E083837B
:100200000895FC01A481B58112960D90BC91A02D9A
:100210009C918281809589238C9313820895E0912B
:100220006D02F0916E020680F781E02D80916F02E1
:1002300090E091838083E091C502F091C6028091A5
:10024000C102282F30E0448155814217530721F025
:100250008F5F8093C102089586819781009709F48A
:1002600059C04091C2025091C302849F9001859F62
:10027000300D949F300D1124ABEABAEA0E941005AC
:100280009695879596958795A0919102B091920247
:1002900011969C938E938085918590938C02809388
:1002A0008B0280918E02882361F14081518182818D
:1002B000938184179507B9F09A01ABEABAEA0E94D4
:1002C00010059695879596958795958384839C01CF
:1002D000220F331F820F931F880F991F9A01281B2B
:1002E000390B37832683538342838285938590938A
:1002F000C6028093C5028091C1028F5F8093C102C4
:1003000008958BE892E00E94EA00E091C502F09126
:10031000C602CBCF0084F185E02D1995E091C5028E
:10032000F091C602C2CFE0913302F0913402068010
:10033000F781E02D8091350290E091838083E091F8
:100340006702F0916802808191819093C30280934B
:10035000C2029C0136952795880F991F820F931F23
:10036000E0914F02F09150029183808380914C0282
:100370008823C9F18091C002811132C08091C102ED
:100380008A3359F0E0919F02F091A0029081809110
:10039000A50280958923808308958091C20290915F
:1003A000C302E0915F02F0916002918380838091AB
:1003B0005C028823E9F08091C2029091C302880F09
:1003C000991FE0915702F0915802918380838091A8
:1003D00054028111D7CF81E592E00E94EA00D2CF8A
:1003E0000E940F01CBCF89E492E00E94EA00C2CFC5
:1003F00089E592E00E94EA00DECF0C940F010E9492
:100400000F011092C102E3E3F2E0A081B1811696E0
:100410000D90BC91A02D828190E011969C938E93BB
:10042000AFE9B2E0ED91FC911197908116968C9115
:10043000892B808308951F920F920FB60F9211247B
:100440000BB60F922F933F934F935F936F937F93CE
:100450008F939F93AF93BF93EF93FF93E0918B02A2
:10046000F0918C02309709F0199510928C0210923D
:100470008B0280918E02882321F08BE892E00E940B
:100480000101FF91EF91BF91AF919F918F917F916A
:100490006F915F914F913F912F910F900BBE0F90F5
:1004A0000FBE0F901F9018951F920F920FB60F92CC
:1004B00011240BB60F922F933F934F935F936F933B
:1004C0007F938F939F93AF93BF93EF93FF93E091AD
:1004D0008302F0918402309709F0199510928402FA
:1004E0001092830280918602882321F083E892E0B3
:1004F0000E940101FF91EF91BF91AF919F918F9168
:100500007F916F915F914F913F912F910F900BBE13
:100510000F900FBE0F901F9018951F920F920FB65D
:100520000F9211240BB60F922F933F934F935F932B
:100530006F937F938F939F93AF93BF93EF93FF93AB
:10054000E0917B02F0917C02309709F019951092AE
:100550007C0210927B0280917E02882321F08BE73F
:1005600092E00E940101FF91EF91BF91AF919F91A5
:100570008F917F916F915F914F913F912F910F904C
:100580000BBE0F900FBE0F901F9018951F920F92E9
:100590000FB60F9211240BB60F922F933F934F93E8
:1005A0005F936F937F938F939F93AF93BF93EF93DB
:1005B000FF93E0916102F0916202309709F0199582
:1005C000FF91EF91BF91AF919F918F917F916F912B
:1005D0005F914F913F912F910F900BBE0F900FBEE7
:1005E0000F901F9018951F920F920FB60F92112423
:1005F0000BB60F922F933F934F935F936F937F931D
:100600008F939F93AF93BF93EF93FF93E091590222
:10061000F0915A02309709F0199580915C02882375
:1006200021F089E592E00E940101FF91EF91BF91D5
:10063000AF919F918F917F916F915F914F913F917A
:100640002F910F900BBE0F900FBE0F901F9018951B
:100650001F920F920FB60F9211240BB60F922F9389
:100660003F934F935F936F937F938F939F93AF933A
:10067000BF93EF93FF93E0915102F09152023097B4
:1006800009F0199580915402882321F081E592E0C8
:100690000E940101FF91EF91BF91AF919F918F91C6
:1006A0007F916F915F914F913F912F910F900BBE72
:1006B0000F900FBE0F901F9018951F920F920FB6BC
:1006C0000F9211240BB60F922F933F934F935F938A
:1006D0006F937F938F939F93AF93BF93EF93FF930A
:1006E000E0914902F0914A02309709F01995809102
:1006F0004C02882321F089E492E00E940101FF91DD
:10070000EF91BF91AF919F918F917F916F915F9189
:100710004F913F912F910F900BBE0F900FBE0F90F6
:100720001F9018951F920F920FB60F9211240BB6BF
:100730000F922F933F934F935F936F937F938F937A
:100740009F93AF93BF93EF93FF93E0914102F0919A
:100750004202309709F01995FF91EF91BF91AF9147
:100760009F918F917F916F915F914F913F912F91C9
:100770000F900BBE0F900FBE0F901F90189578949E
:1007800084E292E09093C6028093C50228E132E0B1
:1007900030932F0220932E022CE032E0309323027C
:1007A0002093220220E032E03093170220931602B9
:1007B00090930B0280930A02E091BB02F091BC027D
:1007C00090818091BD02892B8083E091B702F091E6
:1007D000B80280819091BD02909589238083E09139
:1007E000B302F091B40290818091B502892B80838D
:1007F000E091AF02F091B00280819091B5029095A6
:1008000089238083E091AB02F091AC0290818091CA
:10081000AD02892B8083E091A702F091A80280812C
:100820009091AD02909589238083E091A302F0918D
:10083000A40290818091A502892B8083E0919F0280
:10084000F091A00280819091A502909589238083E8
:10085000E0919B02F0919C02808190919D02909585
:1008600089238083E0919702F09198029081809192
:100870009D02892B8083E0913602F091370202803D
:10088000F381E02D908180913802892B8083E09163
:100890007002F09171020280F381E02D90818091CD
:1008A0007202892B8083E0913002F0913102028044
:1008B000F381E02D908180913202892B808383E93E
:1008C00091E090936202809361028DEF91E09093AA
:1008D0005A02809359028FEF91E0909352028093D5
:1008E000510285ED90E090934A028093490285EE93
:1008F00090E09093420280934102809164028823A9
:1009000009F489C080914402882309F47FC0809152
:10091000C4028A3348F4E091A702F091A8029081C2
:100920008091AD02892B80838FE891E00197F1F7E8
:1009300000C00000E091A702F091A8029081809190
:10094000AD028095892380838FE891E00197F1F7CC
:1009500000C000008091C4028B3340F48F5F80930D
:10096000C4028091C4028A33F8F6D5CF6091240284
:10097000709125026F5F7F4F709325026093240270
:1009800040911802509119024F5F5F4F5093190226
:100990004093180220910C0230910D022F5F3F4FBF
:1009A00030930D0220930C0280910002909101027D
:1009B000019690930102809300026736714061F0C6
:1009C0004736514081F027363140A1F087369140BB
:1009D000C1F01092C4029BCF109225021092240203
:1009E0004736514081F710921902109218022736AB
:1009F000314061F710920D0210920C02873691403F
:100A000041F71092010210920002E3CF81E492E0DC
:100A10000E94EA007CCF81E692E00E94EA0072CF59
:100A2000A29FB001B39FC001A39F700D811D11242F
:100A3000911DB29F700D811D1124911D0895F89490
:020A4000FFCFE6
:100A42002C012C0132000000C9000000B400B400E7
:100A52001E000000BE0000007800780014000000B4
:100A6200B20000000000000000000000A70000002B
:100A720039024039020039020220012101220124F7
:100A82000100000100690200000000080069022C58
:100A9200010000040069022A010000020069022824
:100AA2000100002000690226013A0073007302006F
:100AB200730202A000A100A200A40000000800939B
:100AC20002AC00000004009302AA0000000200939E
:100AD20002A800390072000B0109010A0102002577
:100AE200002300240080002500230024004000256C
:100AF2000023002400200025002300240010000011
:00000001FF
