:100000000C947C000C949D000C949D000C949D001D
:100010000C949D000C949D000C949D000C949D00EC
:100020000C949D000C949D000C949D000C949D00DC
:100030000C949D000C949D000C949D000C949D00CC
:100040000C949D000C949D000C949D000C949D00BC
:100050000C949D000C949D000C949D000C949D00AC
:100060000C949D000C949D000C949D000C949D009C
:100070000C949D000C949D000C949D000C949D008C
:100080000C949D000C949D000C949D000C949D007C
:100090000C949D000C949D000C949D000C949D006C
:1000A0000C949D000C949D000C9481010C94AF0164
:1000B0000C94DD010C949D000C940B020C94350201
:1000C0000C9463020C9491020C94BF020C949D005A
:1000D0000C949D000C949D000C949D000C949D002C
:1000E0000C949D000C9412010C940C010C941801BA
:1000F0000C942D010C94280111241FBECFEFD1E2E6
:10010000DEBFCDBF00E00CBF12E0A0E0B2E0E8E34C
:10011000F7E000E00BBF02C007900D92A838B107CE
:10012000D9F712E0A8E8B2E001C01D92AD38B107DE
:10013000E1F70E94E9020C949A030C940000FC0180
:100140008381811115C0A481B5810D90BC91A02D32
:100150009C918281892B8C93A481B58112960D90FC
:10016000BC91A02D9C918281892B8C9381E083830B
:100170000895FC018381882361F0A481B5811296E2
:100180000D90BC91A02D9C918281809589238C93A8
:1001900013820895FC01718360830895DC01ED9161
:1001A000FC91309709F019940895DC011696ED91B1
:1001B000FC911797808191810895DC011696ED914D
:1001C000FC911797718360830895DC01ED91FC9198
:1001D00011970280F381E02D908112968C91892BEA
:1001E00080830895DC01ED91FC9111970680F781E1
:1001F000E02D12968C9190E0918380830895DC012C
:10020000ED91FC9111970280F381E02D908112967F
:100210008C91892B80830895809189028F5F8093D0
:1002200089020895809189028F5F809389020895E1
:100230001092890281E080938802AFE6B2E0ED91EE
:10024000FC911197908116968C91892B808308954B
:100250001092890210928802089583E092E00E9431
:10026000F2008DE392E00E94F20081E392E00E94AE
:10027000D50090938B0280938A02BC017695679596
:10028000880F991F680F791F89E192E00E94DD00B5
:1002900089E192E00E949F008091880281110FC045
:1002A000809189028A3391F0E0916F02F09170029F
:1002B0009081809175028095892380830895809133
:1002C00089028F5F809389028A3371F760918A0275
:1002D00070918B0289E292E00E94DD0089E292E057
:1002E0000E949F0060918A0270918B02660F771FB7
:1002F00081E292E00E94DD0081E292E00E949F0094
:10030000D3CF1F920F920FB60F9211240BB60F92FC
:100310002F933F934F935F936F937F938F939F930D
:10032000AF93BF93EF93FF938BE592E00E94CE00D3
:100330008BE592E00E94B900FF91EF91BF91AF91E0
:100340009F918F917F916F915F914F913F912F91ED
:100350000F900BBE0F900FBE0F901F9018951F921D
:100360000F920FB60F9211240BB60F922F933F935B
:100370004F935F936F937F938F939F93AF93BF93AD
:10038000EF93FF9383E592E00E94CE0083E592E035
:100390000E94B900FF91EF91BF91AF919F918F9112
:1003A0007F916F915F914F913F912F910F900BBE75
:1003B0000F900FBE0F901F9018951F920F920FB6BF
:1003C0000F9211240BB60F922F933F934F935F938D
:1003D0006F937F938F939F93AF93BF93EF93FF930D
:1003E0008BE492E00E94CE008BE492E00E94B90080
:1003F000FF91EF91BF91AF919F918F917F916F91FD
:100400005F914F913F912F910F900BBE0F900FBEB8
:100410000F901F9018951F920F920FB60F921124F4
:100420000BB60F922F933F934F935F936F937F93EE
:100430008F939F93AF93BF93EF93FF9381E392E0EA
:100440000E94CE00FF91EF91BF91AF919F918F914C
:100450007F916F915F914F913F912F910F900BBEC4
:100460000F900FBE0F901F9018951F920F920FB60E
:100470000F9211240BB60F922F933F934F935F93DC
:100480006F937F938F939F93AF93BF93EF93FF935C
:1004900089E292E00E94CE0089E292E00E94B900D7
:1004A000FF91EF91BF91AF919F918F917F916F914C
:1004B0005F914F913F912F910F900BBE0F900FBE08
:1004C0000F901F9018951F920F920FB60F92112444
:1004D0000BB60F922F933F934F935F936F937F933E
:1004E0008F939F93AF93BF93EF93FF9381E292E03B
:1004F0000E94CE0081E292E00E94B900FF91EF914C
:10050000BF91AF919F918F917F916F915F914F912B
:100510003F912F910F900BBE0F900FBE0F901F9029
:1005200018951F920F920FB60F9211240BB60F92CF
:100530002F933F934F935F936F937F938F939F93EB
:10054000AF93BF93EF93FF9389E192E00E94CE00B7
:1005500089E192E00E94B900FF91EF91BF91AF91C4
:100560009F918F917F916F915F914F913F912F91CB
:100570000F900BBE0F900FBE0F901F9018951F92FB
:100580000F920FB60F9211240BB60F922F933F9339
:100590004F935F936F937F938F939F93AF93BF938B
:1005A000EF93FF9381E192E00E94CE00FF91EF91E3
:1005B000BF91AF919F918F917F916F915F914F917B
:1005C0003F912F910F900BBE0F900FBE0F901F9079
:1005D00018957894E0918302F09184029081809143
:1005E0008502892B8083E0917F02F09180028081D7
:1005F00090918502909589238083E0917B02F09110
:100600007C02908180917D02892B8083E09177022A
:10061000F0917802808190917D029095892380836A
:10062000E0917302F0917402908180917502892BA0
:100630008083E0916F02F091700280819091750249
:10064000909589238083E0916B02F0916C02808108
:1006500090916D02909589238083E0916702F091DB
:100660006802908180916D02892B808386E092E000
:100670000E94E50080E492E00E94E50080E092E0C4
:100680000E94FF006DE271E081E392E00E94CA00E7
:100690006CE071E089E292E00E94CA0062E171E0E0
:1006A00081E292E00E94CA0068E171E089E192E093
:1006B0000E94CA0068E271E081E192E00E94CA00F3
:1006C00081E392E00E949F0081E192E00E949F00FE
:1006D00080918C028A3348F4E0917702F09178029D
:1006E000908180917D02892B80838FE891E0019732
:1006F000F1F700C00000E0917702F091780290815C
:1007000080917D028095892380838FE891E0019715
:10071000F1F700C0000080918C028B3340F48F5FB2
:1007200080938C0280918C028A33F8F6D5CF109298
:080730008C02CECFF894FFCF3C
:1007380009024009020009020220012101220124C4
:100748000100000100390200000000080039022CF5
:10075800010000040039022A0100000200390228C1
:100768000100002000390226013A0073004302000C
:10077800430202A000A100A200A400000008006338
:1007880002AC00000004006302AA0000000200633B
:1007980002A800390072000B0109010A01020025B4
:1007A80000230024008000250023002400400025A9
:0807B8000023002400200000D2
:00000001FF
